{
  "_format": "hh-sol-artifact-1",
  "contractName": "TicketMarketplace",
  "sourceName": "contracts/TicketMarketplace.sol",
  "abi": [
    {
      "inputs": [],
      "stateMutability": "nonpayable",
      "type": "constructor"
    },
    {
      "inputs": [
        {
          "internalType": "address",
          "name": "sender",
          "type": "address"
        },
        {
          "internalType": "uint256",
          "name": "tokenId",
          "type": "uint256"
        },
        {
          "internalType": "address",
          "name": "owner",
          "type": "address"
        }
      ],
      "name": "ERC721IncorrectOwner",
      "type": "error"
    },
    {
      "inputs": [
        {
          "internalType": "address",
          "name": "operator",
          "type": "address"
        },
        {
          "internalType": "uint256",
          "name": "tokenId",
          "type": "uint256"
        }
      ],
      "name": "ERC721InsufficientApproval",
      "type": "error"
    },
    {
      "inputs": [
        {
          "internalType": "address",
          "name": "approver",
          "type": "address"
        }
      ],
      "name": "ERC721InvalidApprover",
      "type": "error"
    },
    {
      "inputs": [
        {
          "internalType": "address",
          "name": "operator",
          "type": "address"
        }
      ],
      "name": "ERC721InvalidOperator",
      "type": "error"
    },
    {
      "inputs": [
        {
          "internalType": "address",
          "name": "owner",
          "type": "address"
        }
      ],
      "name": "ERC721InvalidOwner",
      "type": "error"
    },
    {
      "inputs": [
        {
          "internalType": "address",
          "name": "receiver",
          "type": "address"
        }
      ],
      "name": "ERC721InvalidReceiver",
      "type": "error"
    },
    {
      "inputs": [
        {
          "internalType": "address",
          "name": "sender",
          "type": "address"
        }
      ],
      "name": "ERC721InvalidSender",
      "type": "error"
    },
    {
      "inputs": [
        {
          "internalType": "uint256",
          "name": "tokenId",
          "type": "uint256"
        }
      ],
      "name": "ERC721NonexistentToken",
      "type": "error"
    },
    {
      "inputs": [],
      "name": "EnforcedPause",
      "type": "error"
    },
    {
      "inputs": [],
      "name": "ExpectedPause",
      "type": "error"
    },
    {
      "inputs": [
        {
          "internalType": "address",
          "name": "owner",
          "type": "address"
        }
      ],
      "name": "OwnableInvalidOwner",
      "type": "error"
    },
    {
      "inputs": [
        {
          "internalType": "address",
          "name": "account",
          "type": "address"
        }
      ],
      "name": "OwnableUnauthorizedAccount",
      "type": "error"
    },
    {
      "inputs": [],
      "name": "ReentrancyGuardReentrantCall",
      "type": "error"
    },
    {
      "anonymous": false,
      "inputs": [
        {
          "indexed": true,
          "internalType": "address",
          "name": "owner",
          "type": "address"
        },
        {
          "indexed": true,
          "internalType": "address",
          "name": "approved",
          "type": "address"
        },
        {
          "indexed": true,
          "internalType": "uint256",
          "name": "tokenId",
          "type": "uint256"
        }
      ],
      "name": "Approval",
      "type": "event"
    },
    {
      "anonymous": false,
      "inputs": [
        {
          "indexed": true,
          "internalType": "address",
          "name": "owner",
          "type": "address"
        },
        {
          "indexed": true,
          "internalType": "address",
          "name": "operator",
          "type": "address"
        },
        {
          "indexed": false,
          "internalType": "bool",
          "name": "approved",
          "type": "bool"
        }
      ],
      "name": "ApprovalForAll",
      "type": "event"
    },
    {
      "anonymous": false,
      "inputs": [
        {
          "indexed": false,
          "internalType": "uint256",
          "name": "_fromTokenId",
          "type": "uint256"
        },
        {
          "indexed": false,
          "internalType": "uint256",
          "name": "_toTokenId",
          "type": "uint256"
        }
      ],
      "name": "BatchMetadataUpdate",
      "type": "event"
    },
    {
      "anonymous": false,
      "inputs": [
        {
          "indexed": true,
          "internalType": "uint256",
          "name": "eventId",
          "type": "uint256"
        },
        {
          "indexed": false,
          "internalType": "string",
          "name": "name",
          "type": "string"
        },
        {
          "indexed": false,
          "internalType": "uint256",
          "name": "price",
          "type": "uint256"
        },
        {
          "indexed": false,
          "internalType": "uint256",
          "name": "maxSupply",
          "type": "uint256"
        }
      ],
      "name": "EventCreated",
      "type": "event"
    },
    {
      "anonymous": false,
      "inputs": [
        {
          "indexed": true,
          "internalType": "uint256",
          "name": "eventId",
          "type": "uint256"
        },
        {
          "indexed": false,
          "internalType": "string",
          "name": "name",
          "type": "string"
        },
        {
          "indexed": false,
          "internalType": "uint256",
          "name": "price",
          "type": "uint256"
        }
      ],
      "name": "EventUpdated",
      "type": "event"
    },
    {
      "anonymous": false,
      "inputs": [
        {
          "indexed": false,
          "internalType": "uint256",
          "name": "_tokenId",
          "type": "uint256"
        }
      ],
      "name": "MetadataUpdate",
      "type": "event"
    },
    {
      "anonymous": false,
      "inputs": [
        {
          "indexed": true,
          "internalType": "address",
          "name": "previousOwner",
          "type": "address"
        },
        {
          "indexed": true,
          "internalType": "address",
          "name": "newOwner",
          "type": "address"
        }
      ],
      "name": "OwnershipTransferred",
      "type": "event"
    },
    {
      "anonymous": false,
      "inputs": [
        {
          "indexed": false,
          "internalType": "address",
          "name": "account",
          "type": "address"
        }
      ],
      "name": "Paused",
      "type": "event"
    },
    {
      "anonymous": false,
      "inputs": [
        {
          "indexed": true,
          "internalType": "uint256",
          "name": "tokenId",
          "type": "uint256"
        },
        {
          "indexed": true,
          "internalType": "uint256",
          "name": "eventId",
          "type": "uint256"
        }
      ],
      "name": "TicketBurned",
      "type": "event"
    },
    {
      "anonymous": false,
      "inputs": [
        {
          "indexed": true,
          "internalType": "uint256",
          "name": "tokenId",
          "type": "uint256"
        },
        {
          "indexed": true,
          "internalType": "uint256",
          "name": "eventId",
          "type": "uint256"
        },
        {
          "indexed": false,
          "internalType": "address",
          "name": "buyer",
          "type": "address"
        },
        {
          "indexed": false,
          "internalType": "uint256",
          "name": "price",
          "type": "uint256"
        }
      ],
      "name": "TicketPurchased",
      "type": "event"
    },
    {
      "anonymous": false,
      "inputs": [
        {
          "indexed": true,
          "internalType": "uint256",
          "name": "tokenId",
          "type": "uint256"
        },
        {
          "indexed": true,
          "internalType": "uint256",
          "name": "eventId",
          "type": "uint256"
        },
        {
          "indexed": false,
          "internalType": "address",
          "name": "verifier",
          "type": "address"
        }
      ],
      "name": "TicketUsed",
      "type": "event"
    },
    {
      "anonymous": false,
      "inputs": [
        {
          "indexed": true,
          "internalType": "address",
          "name": "from",
          "type": "address"
        },
        {
          "indexed": true,
          "internalType": "address",
          "name": "to",
          "type": "address"
        },
        {
          "indexed": true,
          "internalType": "uint256",
          "name": "tokenId",
          "type": "uint256"
        }
      ],
      "name": "Transfer",
      "type": "event"
    },
    {
      "anonymous": false,
      "inputs": [
        {
          "indexed": false,
          "internalType": "address",
          "name": "account",
          "type": "address"
        }
      ],
      "name": "Unpaused",
      "type": "event"
    },
    {
      "anonymous": false,
      "inputs": [
        {
          "indexed": true,
          "internalType": "uint256",
          "name": "eventId",
          "type": "uint256"
        },
        {
          "indexed": false,
          "internalType": "address",
          "name": "verifier",
          "type": "address"
        }
      ],
      "name": "VerifierAdded",
      "type": "event"
    },
    {
      "anonymous": false,
      "inputs": [
        {
          "indexed": true,
          "internalType": "uint256",
          "name": "eventId",
          "type": "uint256"
        },
        {
          "indexed": false,
          "internalType": "address",
          "name": "verifier",
          "type": "address"
        }
      ],
      "name": "VerifierRemoved",
      "type": "event"
    },
    {
      "inputs": [],
      "name": "MAX_PLATFORM_FEE",
      "outputs": [
        {
          "internalType": "uint256",
          "name": "",
          "type": "uint256"
        }
      ],
      "stateMutability": "view",
      "type": "function"
    },
    {
      "inputs": [
        {
          "internalType": "uint256",
          "name": "eventId",
          "type": "uint256"
        },
        {
          "internalType": "address",
          "name": "verifier",
          "type": "address"
        }
      ],
      "name": "addVerifier",
      "outputs": [],
      "stateMutability": "nonpayable",
      "type": "function"
    },
    {
      "inputs": [
        {
          "internalType": "address",
          "name": "to",
          "type": "address"
        },
        {
          "internalType": "uint256",
          "name": "tokenId",
          "type": "uint256"
        }
      ],
      "name": "approve",
      "outputs": [],
      "stateMutability": "nonpayable",
      "type": "function"
    },
    {
      "inputs": [
        {
          "internalType": "uint256",
          "name": "",
          "type": "uint256"
        }
      ],
      "name": "authorizedVerifiers",
      "outputs": [
        {
          "internalType": "address",
          "name": "",
          "type": "address"
        }
      ],
      "stateMutability": "view",
      "type": "function"
    },
    {
      "inputs": [
        {
          "internalType": "address",
          "name": "owner",
          "type": "address"
        }
      ],
      "name": "balanceOf",
      "outputs": [
        {
          "internalType": "uint256",
          "name": "",
          "type": "uint256"
        }
      ],
      "stateMutability": "view",
      "type": "function"
    },
    {
      "inputs": [
        {
          "internalType": "uint256",
          "name": "tokenId",
          "type": "uint256"
        }
      ],
      "name": "burn",
      "outputs": [],
      "stateMutability": "nonpayable",
      "type": "function"
    },
    {
      "inputs": [
        {
          "internalType": "string",
          "name": "name",
          "type": "string"
        },
        {
          "internalType": "string",
          "name": "description",
          "type": "string"
        },
        {
          "internalType": "uint256",
          "name": "price",
          "type": "uint256"
        },
        {
          "internalType": "uint256",
          "name": "maxSupply",
          "type": "uint256"
        },
        {
          "internalType": "uint256",
          "name": "eventDate",
          "type": "uint256"
        }
      ],
      "name": "createEvent",
      "outputs": [
        {
          "internalType": "uint256",
          "name": "",
          "type": "uint256"
        }
      ],
      "stateMutability": "nonpayable",
      "type": "function"
    },
    {
      "inputs": [],
      "name": "eventCounter",
      "outputs": [
        {
          "internalType": "uint256",
          "name": "",
          "type": "uint256"
        }
      ],
      "stateMutability": "view",
      "type": "function"
    },
    {
      "inputs": [
        {
          "internalType": "uint256",
          "name": "",
          "type": "uint256"
        }
      ],
      "name": "eventExists",
      "outputs": [
        {
          "internalType": "bool",
          "name": "",
          "type": "bool"
        }
      ],
      "stateMutability": "view",
      "type": "function"
    },
    {
      "inputs": [
        {
          "internalType": "uint256",
          "name": "",
          "type": "uint256"
        }
      ],
      "name": "events",
      "outputs": [
        {
          "internalType": "uint256",
          "name": "eventId",
          "type": "uint256"
        },
        {
          "internalType": "string",
          "name": "name",
          "type": "string"
        },
        {
          "internalType": "string",
          "name": "description",
          "type": "string"
        },
        {
          "internalType": "uint256",
          "name": "price",
          "type": "uint256"
        },
        {
          "internalType": "uint256",
          "name": "maxSupply",
          "type": "uint256"
        },
        {
          "internalType": "uint256",
          "name": "currentSupply",
          "type": "uint256"
        },
        {
          "internalType": "uint256",
          "name": "eventDate",
          "type": "uint256"
        },
        {
          "internalType": "bool",
          "name": "isActive",
          "type": "bool"
        },
        {
          "internalType": "address",
          "name": "organizer",
          "type": "address"
        }
      ],
      "stateMutability": "view",
      "type": "function"
    },
    {
      "inputs": [
        {
          "internalType": "uint256",
          "name": "tokenId",
          "type": "uint256"
        }
      ],
      "name": "getApproved",
      "outputs": [
        {
          "internalType": "address",
          "name": "",
          "type": "address"
        }
      ],
      "stateMutability": "view",
      "type": "function"
    },
    {
      "inputs": [
        {
          "internalType": "uint256",
          "name": "eventId",
          "type": "uint256"
        }
      ],
      "name": "getEventInfo",
      "outputs": [
        {
          "components": [
            {
              "internalType": "uint256",
              "name": "eventId",
              "type": "uint256"
            },
            {
              "internalType": "string",
              "name": "name",
              "type": "string"
            },
            {
              "internalType": "string",
              "name": "description",
              "type": "string"
            },
            {
              "internalType": "uint256",
              "name": "price",
              "type": "uint256"
            },
            {
              "internalType": "uint256",
              "name": "maxSupply",
              "type": "uint256"
            },
            {
              "internalType": "uint256",
              "name": "currentSupply",
              "type": "uint256"
            },
            {
              "internalType": "uint256",
              "name": "eventDate",
              "type": "uint256"
            },
            {
              "internalType": "bool",
              "name": "isActive",
              "type": "bool"
            },
            {
              "internalType": "address",
              "name": "organizer",
              "type": "address"
            }
          ],
          "internalType": "struct TicketMarketplace.Event",
          "name": "",
          "type": "tuple"
        }
      ],
      "stateMutability": "view",
      "type": "function"
    },
    {
      "inputs": [
        {
          "internalType": "uint256",
          "name": "tokenId",
          "type": "uint256"
        }
      ],
      "name": "getTicketInfo",
      "outputs": [
        {
          "components": [
            {
              "internalType": "uint256",
              "name": "tokenId",
              "type": "uint256"
            },
            {
              "internalType": "uint256",
              "name": "eventId",
              "type": "uint256"
            },
            {
              "internalType": "address",
              "name": "owner",
              "type": "address"
            },
            {
              "internalType": "bool",
              "name": "isUsed",
              "type": "bool"
            },
            {
              "internalType": "uint256",
              "name": "purchaseDate",
              "type": "uint256"
            },
            {
              "internalType": "uint256",
              "name": "usageDate",
              "type": "uint256"
            }
          ],
          "internalType": "struct TicketMarketplace.Ticket",
          "name": "",
          "type": "tuple"
        }
      ],
      "stateMutability": "view",
      "type": "function"
    },
    {
      "inputs": [
        {
          "internalType": "address",
          "name": "user",
          "type": "address"
        }
      ],
      "name": "getUserTickets",
      "outputs": [
        {
          "internalType": "uint256[]",
          "name": "",
          "type": "uint256[]"
        }
      ],
      "stateMutability": "view",
      "type": "function"
    },
    {
      "inputs": [
        {
          "internalType": "address",
          "name": "owner",
          "type": "address"
        },
        {
          "internalType": "address",
          "name": "operator",
          "type": "address"
        }
      ],
      "name": "isApprovedForAll",
      "outputs": [
        {
          "internalType": "bool",
          "name": "",
          "type": "bool"
        }
      ],
      "stateMutability": "view",
      "type": "function"
    },
    {
      "inputs": [],
      "name": "name",
      "outputs": [
        {
          "internalType": "string",
          "name": "",
          "type": "string"
        }
      ],
      "stateMutability": "view",
      "type": "function"
    },
    {
      "inputs": [],
      "name": "owner",
      "outputs": [
        {
          "internalType": "address",
          "name": "",
          "type": "address"
        }
      ],
      "stateMutability": "view",
      "type": "function"
    },
    {
      "inputs": [
        {
          "internalType": "uint256",
          "name": "tokenId",
          "type": "uint256"
        }
      ],
      "name": "ownerOf",
      "outputs": [
        {
          "internalType": "address",
          "name": "",
          "type": "address"
        }
      ],
      "stateMutability": "view",
      "type": "function"
    },
    {
      "inputs": [],
      "name": "pause",
      "outputs": [],
      "stateMutability": "nonpayable",
      "type": "function"
    },
    {
      "inputs": [],
      "name": "paused",
      "outputs": [
        {
          "internalType": "bool",
          "name": "",
          "type": "bool"
        }
      ],
      "stateMutability": "view",
      "type": "function"
    },
    {
      "inputs": [],
      "name": "platformFee",
      "outputs": [
        {
          "internalType": "uint256",
          "name": "",
          "type": "uint256"
        }
      ],
      "stateMutability": "view",
      "type": "function"
    },
    {
      "inputs": [
        {
          "internalType": "uint256",
          "name": "eventId",
          "type": "uint256"
        },
        {
          "internalType": "string",
          "name": "newTokenURI",
          "type": "string"
        }
      ],
      "name": "purchaseTicket",
      "outputs": [],
      "stateMutability": "payable",
      "type": "function"
    },
    {
      "inputs": [
        {
          "internalType": "uint256",
          "name": "eventId",
          "type": "uint256"
        }
      ],
      "name": "removeVerifier",
      "outputs": [],
      "stateMutability": "nonpayable",
      "type": "function"
    },
    {
      "inputs": [],
      "name": "renounceOwnership",
      "outputs": [],
      "stateMutability": "nonpayable",
      "type": "function"
    },
    {
      "inputs": [
        {
          "internalType": "address",
          "name": "from",
          "type": "address"
        },
        {
          "internalType": "address",
          "name": "to",
          "type": "address"
        },
        {
          "internalType": "uint256",
          "name": "tokenId",
          "type": "uint256"
        }
      ],
      "name": "safeTransferFrom",
      "outputs": [],
      "stateMutability": "nonpayable",
      "type": "function"
    },
    {
      "inputs": [
        {
          "internalType": "address",
          "name": "from",
          "type": "address"
        },
        {
          "internalType": "address",
          "name": "to",
          "type": "address"
        },
        {
          "internalType": "uint256",
          "name": "tokenId",
          "type": "uint256"
        },
        {
          "internalType": "bytes",
          "name": "data",
          "type": "bytes"
        }
      ],
      "name": "safeTransferFrom",
      "outputs": [],
      "stateMutability": "nonpayable",
      "type": "function"
    },
    {
      "inputs": [
        {
          "internalType": "address",
          "name": "operator",
          "type": "address"
        },
        {
          "internalType": "bool",
          "name": "approved",
          "type": "bool"
        }
      ],
      "name": "setApprovalForAll",
      "outputs": [],
      "stateMutability": "nonpayable",
      "type": "function"
    },
    {
      "inputs": [
        {
          "internalType": "uint256",
          "name": "newFee",
          "type": "uint256"
        }
      ],
      "name": "setPlatformFee",
      "outputs": [],
      "stateMutability": "nonpayable",
      "type": "function"
    },
    {
      "inputs": [
        {
          "internalType": "bytes4",
          "name": "interfaceId",
          "type": "bytes4"
        }
      ],
      "name": "supportsInterface",
      "outputs": [
        {
          "internalType": "bool",
          "name": "",
          "type": "bool"
        }
      ],
      "stateMutability": "view",
      "type": "function"
    },
    {
      "inputs": [],
      "name": "symbol",
      "outputs": [
        {
          "internalType": "string",
          "name": "",
          "type": "string"
        }
      ],
      "stateMutability": "view",
      "type": "function"
    },
    {
      "inputs": [
        {
          "internalType": "uint256",
          "name": "",
          "type": "uint256"
        }
      ],
      "name": "tickets",
      "outputs": [
        {
          "internalType": "uint256",
          "name": "tokenId",
          "type": "uint256"
        },
        {
          "internalType": "uint256",
          "name": "eventId",
          "type": "uint256"
        },
        {
          "internalType": "address",
          "name": "owner",
          "type": "address"
        },
        {
          "internalType": "bool",
          "name": "isUsed",
          "type": "bool"
        },
        {
          "internalType": "uint256",
          "name": "purchaseDate",
          "type": "uint256"
        },
        {
          "internalType": "uint256",
          "name": "usageDate",
          "type": "uint256"
        }
      ],
      "stateMutability": "view",
      "type": "function"
    },
    {
      "inputs": [
        {
          "internalType": "uint256",
          "name": "eventId",
          "type": "uint256"
        }
      ],
      "name": "toggleEventStatus",
      "outputs": [],
      "stateMutability": "nonpayable",
      "type": "function"
    },
    {
      "inputs": [
        {
          "internalType": "uint256",
          "name": "",
          "type": "uint256"
        }
      ],
      "name": "tokenExists",
      "outputs": [
        {
          "internalType": "bool",
          "name": "",
          "type": "bool"
        }
      ],
      "stateMutability": "view",
      "type": "function"
    },
    {
      "inputs": [
        {
          "internalType": "uint256",
          "name": "tokenId",
          "type": "uint256"
        }
      ],
      "name": "tokenURI",
      "outputs": [
        {
          "internalType": "string",
          "name": "",
          "type": "string"
        }
      ],
      "stateMutability": "view",
      "type": "function"
    },
    {
      "inputs": [],
      "name": "totalRevenue",
      "outputs": [
        {
          "internalType": "uint256",
          "name": "",
          "type": "uint256"
        }
      ],
      "stateMutability": "view",
      "type": "function"
    },
    {
      "inputs": [
        {
          "internalType": "address",
          "name": "from",
          "type": "address"
        },
        {
          "internalType": "address",
          "name": "to",
          "type": "address"
        },
        {
          "internalType": "uint256",
          "name": "tokenId",
          "type": "uint256"
        }
      ],
      "name": "transferFrom",
      "outputs": [],
      "stateMutability": "nonpayable",
      "type": "function"
    },
    {
      "inputs": [
        {
          "internalType": "address",
          "name": "newOwner",
          "type": "address"
        }
      ],
      "name": "transferOwnership",
      "outputs": [],
      "stateMutability": "nonpayable",
      "type": "function"
    },
    {
      "inputs": [],
      "name": "unpause",
      "outputs": [],
      "stateMutability": "nonpayable",
      "type": "function"
    },
    {
      "inputs": [
        {
          "internalType": "uint256",
          "name": "eventId",
          "type": "uint256"
        },
        {
          "internalType": "string",
          "name": "name",
          "type": "string"
        },
        {
          "internalType": "uint256",
          "name": "price",
          "type": "uint256"
        }
      ],
      "name": "updateEvent",
      "outputs": [],
      "stateMutability": "nonpayable",
      "type": "function"
    },
    {
      "inputs": [
        {
          "internalType": "uint256",
          "name": "tokenId",
          "type": "uint256"
        }
      ],
      "name": "useTicket",
      "outputs": [],
      "stateMutability": "nonpayable",
      "type": "function"
    },
    {
      "inputs": [
        {
          "internalType": "address",
          "name": "",
          "type": "address"
        },
        {
          "internalType": "uint256",
          "name": "",
          "type": "uint256"
        }
      ],
      "name": "userTickets",
      "outputs": [
        {
          "internalType": "uint256",
          "name": "",
          "type": "uint256"
        }
      ],
      "stateMutability": "view",
      "type": "function"
    },
    {
      "inputs": [],
      "name": "withdrawRevenue",
      "outputs": [],
      "stateMutability": "nonpayable",
      "type": "function"
    }
  ],
  "bytecode": "0x608060405260fa60125534801561001557600080fd5b50336040518060400160405280600b81526020017f4576656e745469636b65740000000000000000000000000000000000000000008152506040518060400160405280600481526020017f45544b54000000000000000000000000000000000000000000000000000000008152508160009081610092919061046a565b5080600190816100a2919061046a565b505050600073ffffffffffffffffffffffffffffffffffffffff168173ffffffffffffffffffffffffffffffffffffffff16036101175760006040517f1e4fbdf700000000000000000000000000000000000000000000000000000000815260040161010e919061057d565b60405180910390fd5b6101268161015460201b60201c565b50600160088190555060006009819055506000601081905550600060118190555060fa601281905550610598565b6000600760019054906101000a900473ffffffffffffffffffffffffffffffffffffffff16905081600760016101000a81548173ffffffffffffffffffffffffffffffffffffffff021916908373ffffffffffffffffffffffffffffffffffffffff1602179055508173ffffffffffffffffffffffffffffffffffffffff168173ffffffffffffffffffffffffffffffffffffffff167f8be0079c531659141344cd1fd0a4f28419497f9722a3daafe3b4186f6b6457e060405160405180910390a35050565b600081519050919050565b7f4e487b7100000000000000000000000000000000000000000000000000000000600052604160045260246000fd5b7f4e487b7100000000000000000000000000000000000000000000000000000000600052602260045260246000fd5b6000600282049050600182168061029b57607f821691505b6020821081036102ae576102ad610254565b5b50919050565b60008190508160005260206000209050919050565b60006020601f8301049050919050565b600082821b905092915050565b6000600883026103167fffffffffffffffffffffffffffffffffffffffffffffffffffffffffffffffff826102d9565b61032086836102d9565b95508019841693508086168417925050509392505050565b6000819050919050565b6000819050919050565b600061036761036261035d84610338565b610342565b610338565b9050919050565b6000819050919050565b6103818361034c565b61039561038d8261036e565b8484546102e6565b825550505050565b600090565b6103aa61039d565b6103b5818484610378565b505050565b5b818110156103d9576103ce6000826103a2565b6001810190506103bb565b5050565b601f82111561041e576103ef816102b4565b6103f8846102c9565b81016020851015610407578190505b61041b610413856102c9565b8301826103ba565b50505b505050565b600082821c905092915050565b600061044160001984600802610423565b1980831691505092915050565b600061045a8383610430565b9150826002028217905092915050565b6104738261021a565b67ffffffffffffffff81111561048c5761048b610225565b5b6104968254610283565b6104a18282856103dd565b600060209050601f8311600181146104d457600084156104c2578287015190505b6104cc858261044e565b865550610534565b601f1984166104e2866102b4565b60005b8281101561050a578489015182556001820191506020850194506020810190506104e5565b868310156105275784890151610523601f891682610430565b8355505b6001600288020188555050505b505050505050565b600073ffffffffffffffffffffffffffffffffffffffff82169050919050565b60006105678261053c565b9050919050565b6105778161055c565b82525050565b6000602082019050610592600083018461056e565b92915050565b615be2806105a76000396000f3fe6080604052600436106102505760003560e01c80635b9e89d311610139578063b2832096116100b6578063dbe8ba121161007a578063dbe8ba12146108f2578063e13102e91461092f578063e985e9c514610958578063f2fde38b14610995578063f73fd76a146109be578063ff99a063146109da57610250565b8063b2832096146107fb578063b88d4fde14610824578063bf2d9e0b1461084d578063c87b56dd14610878578063cf260baf146108b557610250565b80638456cb59116100fd5780638456cb59146107285780638da5cb5b1461073f57806395d89b411461076a578063a22cb46514610795578063a3c28dfc146107be57610250565b80635b9e89d3146106435780635c975abb1461066c5780636352211e1461069757806370a08231146106d4578063715018a61461071157610250565b806326232a2e116101d257806342842e0e1161019657806342842e0e1461054457806342966c681461056d5780634f573cb21461059657806350b44712146105ad57806352c55db9146105ef57806352dd75711461061a57610250565b806326232a2e14610471578063266064481461049c5780633998a681146104c55780633c2fc56c146104f05780633f4ba83a1461052d57610250565b8063095ea7b311610219578063095ea7b3146103745780630b7914301461039d57806312e8e2c3146103e25780631d645b121461040b57806323b872dd1461044857610250565b8062923f9e1461025557806301ffc9a7146102925780630484a22f146102cf57806306fdde031461030c578063081812fc14610337575b600080fd5b34801561026157600080fd5b5061027c60048036038101906102779190614143565b610a17565b604051610289919061418b565b60405180910390f35b34801561029e57600080fd5b506102b960048036038101906102b491906141fe565b610a37565b6040516102c6919061418b565b60405180910390f35b3480156102db57600080fd5b506102f660048036038101906102f19190614289565b610a49565b6040516103039190614374565b60405180910390f35b34801561031857600080fd5b50610321610ae0565b60405161032e9190614426565b60405180910390f35b34801561034357600080fd5b5061035e60048036038101906103599190614143565b610b72565b60405161036b9190614457565b60405180910390f35b34801561038057600080fd5b5061039b60048036038101906103969190614472565b610b8e565b005b3480156103a957600080fd5b506103c460048036038101906103bf9190614143565b610ba4565b6040516103d9999897969594939291906144c1565b60405180910390f35b3480156103ee57600080fd5b5061040960048036038101906104049190614143565b610d2f565b005b34801561041757600080fd5b50610432600480360381019061042d9190614143565b610d86565b60405161043f9190614690565b60405180910390f35b34801561045457600080fd5b5061046f600480360381019061046a91906146b2565b610fdb565b005b34801561047d57600080fd5b506104866110dd565b6040516104939190614705565b60405180910390f35b3480156104a857600080fd5b506104c360048036038101906104be9190614143565b6110e3565b005b3480156104d157600080fd5b506104da61140b565b6040516104e79190614705565b60405180910390f35b3480156104fc57600080fd5b5061051760048036038101906105129190614855565b611411565b6040516105249190614705565b60405180910390f35b34801561053957600080fd5b506105426116a5565b005b34801561055057600080fd5b5061056b600480360381019061056691906146b2565b6116b7565b005b34801561057957600080fd5b50610594600480360381019061058f9190614143565b6116d7565b005b3480156105a257600080fd5b506105ab6116ee565b005b3480156105b957600080fd5b506105d460048036038101906105cf9190614143565b6117bc565b6040516105e696959493929190614908565b60405180910390f35b3480156105fb57600080fd5b50610604611825565b6040516106119190614705565b60405180910390f35b34801561062657600080fd5b50610641600480360381019061063c9190614969565b61182b565b005b34801561064f57600080fd5b5061066a60048036038101906106659190614143565b611943565b005b34801561067857600080fd5b50610681611a93565b60405161068e919061418b565b60405180910390f35b3480156106a357600080fd5b506106be60048036038101906106b99190614143565b611aaa565b6040516106cb9190614457565b60405180910390f35b3480156106e057600080fd5b506106fb60048036038101906106f69190614289565b611abc565b6040516107089190614705565b60405180910390f35b34801561071d57600080fd5b50610726611b76565b005b34801561073457600080fd5b5061073d611b8a565b005b34801561074b57600080fd5b50610754611b9c565b6040516107619190614457565b60405180910390f35b34801561077657600080fd5b5061077f611bc6565b60405161078c9190614426565b60405180910390f35b3480156107a157600080fd5b506107bc60048036038101906107b79190614a04565b611c58565b005b3480156107ca57600080fd5b506107e560048036038101906107e09190614143565b611c6e565b6040516107f2919061418b565b60405180910390f35b34801561080757600080fd5b50610822600480360381019061081d9190614a44565b611c8e565b005b34801561083057600080fd5b5061084b60048036038101906108469190614b25565b611e31565b005b34801561085957600080fd5b50610862611e56565b60405161086f9190614705565b60405180910390f35b34801561088457600080fd5b5061089f600480360381019061089a9190614143565b611e5c565b6040516108ac9190614426565b60405180910390f35b3480156108c157600080fd5b506108dc60048036038101906108d79190614472565b611e6e565b6040516108e99190614705565b60405180910390f35b3480156108fe57600080fd5b5061091960048036038101906109149190614143565b611e9f565b6040516109269190614457565b60405180910390f35b34801561093b57600080fd5b5061095660048036038101906109519190614143565b611ed2565b005b34801561096457600080fd5b5061097f600480360381019061097a9190614ba8565b611fcd565b60405161098c919061418b565b60405180910390f35b3480156109a157600080fd5b506109bc60048036038101906109b79190614289565b612061565b005b6109d860048036038101906109d39190614be8565b6120e7565b005b3480156109e657600080fd5b50610a0160048036038101906109fc9190614143565b61269a565b604051610a0e9190614cbf565b60405180910390f35b600f6020528060005260406000206000915054906101000a900460ff1681565b6000610a42826127c0565b9050919050565b6060600d60008373ffffffffffffffffffffffffffffffffffffffff1673ffffffffffffffffffffffffffffffffffffffff168152602001908152602001600020805480602002602001604051908101604052809291908181526020018280548015610ad457602002820191906000526020600020905b815481526020019060010190808311610ac0575b50505050509050919050565b606060008054610aef90614d09565b80601f0160208091040260200160405190810160405280929190818152602001828054610b1b90614d09565b8015610b685780601f10610b3d57610100808354040283529160200191610b68565b820191906000526020600020905b815481529060010190602001808311610b4b57829003601f168201915b5050505050905090565b6000610b7d82612821565b50610b87826128a9565b9050919050565b610ba08282610b9b6128e6565b6128ee565b5050565b600a602052806000526040600020600091509050806000015490806001018054610bcd90614d09565b80601f0160208091040260200160405190810160405280929190818152602001828054610bf990614d09565b8015610c465780601f10610c1b57610100808354040283529160200191610c46565b820191906000526020600020905b815481529060010190602001808311610c2957829003601f168201915b505050505090806002018054610c5b90614d09565b80601f0160208091040260200160405190810160405280929190818152602001828054610c8790614d09565b8015610cd45780601f10610ca957610100808354040283529160200191610cd4565b820191906000526020600020905b815481529060010190602001808311610cb757829003601f168201915b5050505050908060030154908060040154908060050154908060060154908060070160009054906101000a900460ff16908060070160019054906101000a900473ffffffffffffffffffffffffffffffffffffffff16905089565b610d37612900565b6103e8811115610d7c576040517f08c379a0000000000000000000000000000000000000000000000000000000008152600401610d7390614d86565b60405180910390fd5b8060128190555050565b610d8e614047565b600c600083815260200190815260200160002060009054906101000a900460ff16610dee576040517f08c379a0000000000000000000000000000000000000000000000000000000008152600401610de590614df2565b60405180910390fd5b600a60008381526020019081526020016000206040518061012001604052908160008201548152602001600182018054610e2790614d09565b80601f0160208091040260200160405190810160405280929190818152602001828054610e5390614d09565b8015610ea05780601f10610e7557610100808354040283529160200191610ea0565b820191906000526020600020905b815481529060010190602001808311610e8357829003601f168201915b50505050508152602001600282018054610eb990614d09565b80601f0160208091040260200160405190810160405280929190818152602001828054610ee590614d09565b8015610f325780601f10610f0757610100808354040283529160200191610f32565b820191906000526020600020905b815481529060010190602001808311610f1557829003601f168201915b50505050508152602001600382015481526020016004820154815260200160058201548152602001600682015481526020016007820160009054906101000a900460ff161515151581526020016007820160019054906101000a900473ffffffffffffffffffffffffffffffffffffffff1673ffffffffffffffffffffffffffffffffffffffff1673ffffffffffffffffffffffffffffffffffffffff16815250509050919050565b600073ffffffffffffffffffffffffffffffffffffffff168273ffffffffffffffffffffffffffffffffffffffff160361104d5760006040517f64a0ae920000000000000000000000000000000000000000000000000000000081526004016110449190614457565b60405180910390fd5b6000611061838361105c6128e6565b612987565b90508373ffffffffffffffffffffffffffffffffffffffff168173ffffffffffffffffffffffffffffffffffffffff16146110d7578382826040517f64283d7b0000000000000000000000000000000000000000000000000000000081526004016110ce93929190614e12565b60405180910390fd5b50505050565b60125481565b600b6000828152602001908152602001600020600101543373ffffffffffffffffffffffffffffffffffffffff16600e600083815260200190815260200160002060009054906101000a900473ffffffffffffffffffffffffffffffffffffffff1673ffffffffffffffffffffffffffffffffffffffff1614806111c857503373ffffffffffffffffffffffffffffffffffffffff16600a600083815260200190815260200160002060070160019054906101000a900473ffffffffffffffffffffffffffffffffffffffff1673ffffffffffffffffffffffffffffffffffffffff16145b8061120557503373ffffffffffffffffffffffffffffffffffffffff166111ed611b9c565b73ffffffffffffffffffffffffffffffffffffffff16145b611244576040517f08c379a000000000000000000000000000000000000000000000000000000000815260040161123b90614e95565b60405180910390fd5b600f600083815260200190815260200160002060009054906101000a900460ff166112a4576040517f08c379a000000000000000000000000000000000000000000000000000000000815260040161129b90614f01565b60405180910390fd5b6000600b600084815260200190815260200160002090508060020160149054906101000a900460ff161561130d576040517f08c379a000000000000000000000000000000000000000000000000000000000815260040161130490614f6d565b60405180910390fd5b6000600a6000836001015481526020019081526020016000209050610e10816006015461133a9190614fbc565b421015801561135a575061546081600601546113569190614ff0565b4211155b611399576040517f08c379a000000000000000000000000000000000000000000000000000000000815260040161139090615070565b60405180910390fd5b60018260020160146101000a81548160ff0219169083151502179055504282600401819055508160010154847fb35ebdfb9515b145e406c5c5a0846ec436db0b9560927af3af7a754d90c4f6ff336040516113f49190614457565b60405180910390a361140584612bfe565b50505050565b6103e881565b600080865111611456576040517f08c379a000000000000000000000000000000000000000000000000000000000815260040161144d906150dc565b60405180910390fd5b60008311611499576040517f08c379a00000000000000000000000000000000000000000000000000000000081526004016114909061516e565b60405180910390fd5b4282116114db576040517f08c379a00000000000000000000000000000000000000000000000000000000081526004016114d2906151da565b60405180910390fd5b601060008154809291906114ee906151fa565b919050555060006010549050604051806101200160405280828152602001888152602001878152602001868152602001858152602001600081526020018481526020016001151581526020013373ffffffffffffffffffffffffffffffffffffffff16815250600a600083815260200190815260200160002060008201518160000155602082015181600101908161158691906153ee565b50604082015181600201908161159c91906153ee565b50606082015181600301556080820151816004015560a0820151816005015560c0820151816006015560e08201518160070160006101000a81548160ff0219169083151502179055506101008201518160070160016101000a81548173ffffffffffffffffffffffffffffffffffffffff021916908373ffffffffffffffffffffffffffffffffffffffff1602179055509050506001600c600083815260200190815260200160002060006101000a81548160ff021916908315150217905550807f42e6867e52299b45991308391cccb9ee79466d194059ff10fc15c2d88f0ea061888787604051611690939291906154c0565b60405180910390a28091505095945050505050565b6116ad612900565b6116b5612dee565b565b6116d283838360405180602001604052806000815250611e31565b505050565b6116ea6000826116e56128e6565b612987565b5050565b6116f6612900565b600060115490506000601181905550600061170f611b9c565b73ffffffffffffffffffffffffffffffffffffffff16826040516117329061552f565b60006040518083038185875af1925050503d806000811461176f576040519150601f19603f3d011682016040523d82523d6000602084013e611774565b606091505b50509050806117b8576040517f08c379a00000000000000000000000000000000000000000000000000000000081526004016117af90615590565b60405180910390fd5b5050565b600b6020528060005260406000206000915090508060000154908060010154908060020160009054906101000a900473ffffffffffffffffffffffffffffffffffffffff16908060020160149054906101000a900460ff16908060030154908060040154905086565b60105481565b823373ffffffffffffffffffffffffffffffffffffffff16600a600083815260200190815260200160002060070160019054906101000a900473ffffffffffffffffffffffffffffffffffffffff1673ffffffffffffffffffffffffffffffffffffffff16146118d0576040517f08c379a00000000000000000000000000000000000000000000000000000000081526004016118c7906155fc565b60405180910390fd5b6000600a60008681526020019081526020016000209050838160010190816118f891906153ee565b50828160030181905550847f52e1cf95a71a4bf626ead510f76e201292e9ba26897de33655903ab896c5ba2b858560405161193492919061561c565b60405180910390a25050505050565b803373ffffffffffffffffffffffffffffffffffffffff16600a600083815260200190815260200160002060070160019054906101000a900473ffffffffffffffffffffffffffffffffffffffff1673ffffffffffffffffffffffffffffffffffffffff16146119e8576040517f08c379a00000000000000000000000000000000000000000000000000000000081526004016119df906155fc565b60405180910390fd5b6000600e600084815260200190815260200160002060009054906101000a900473ffffffffffffffffffffffffffffffffffffffff169050600e600084815260200190815260200160002060006101000a81549073ffffffffffffffffffffffffffffffffffffffff0219169055827f284458f67fc2a6b99f25a542951ece6212056176f4b78bb37c2d64af8528b92f82604051611a869190614457565b60405180910390a2505050565b6000600760009054906101000a900460ff16905090565b6000611ab582612821565b9050919050565b60008073ffffffffffffffffffffffffffffffffffffffff168273ffffffffffffffffffffffffffffffffffffffff1603611b2f5760006040517f89c62b64000000000000000000000000000000000000000000000000000000008152600401611b269190614457565b60405180910390fd5b600360008373ffffffffffffffffffffffffffffffffffffffff1673ffffffffffffffffffffffffffffffffffffffff168152602001908152602001600020549050919050565b611b7e612900565b611b886000612e51565b565b611b92612900565b611b9a612f17565b565b6000600760019054906101000a900473ffffffffffffffffffffffffffffffffffffffff16905090565b606060018054611bd590614d09565b80601f0160208091040260200160405190810160405280929190818152602001828054611c0190614d09565b8015611c4e5780601f10611c2357610100808354040283529160200191611c4e565b820191906000526020600020905b815481529060010190602001808311611c3157829003601f168201915b5050505050905090565b611c6a611c636128e6565b8383612f7a565b5050565b600c6020528060005260406000206000915054906101000a900460ff1681565b813373ffffffffffffffffffffffffffffffffffffffff16600a600083815260200190815260200160002060070160019054906101000a900473ffffffffffffffffffffffffffffffffffffffff1673ffffffffffffffffffffffffffffffffffffffff1614611d33576040517f08c379a0000000000000000000000000000000000000000000000000000000008152600401611d2a906155fc565b60405180910390fd5b600073ffffffffffffffffffffffffffffffffffffffff168273ffffffffffffffffffffffffffffffffffffffff1603611da2576040517f08c379a0000000000000000000000000000000000000000000000000000000008152600401611d9990615698565b60405180910390fd5b81600e600085815260200190815260200160002060006101000a81548173ffffffffffffffffffffffffffffffffffffffff021916908373ffffffffffffffffffffffffffffffffffffffff160217905550827fed057a91bb14fbc78b7ce72ff9f79d4a61c422384e5434c8fa3e8fc8033d895683604051611e249190614457565b60405180910390a2505050565b611e3c848484610fdb565b611e50611e476128e6565b858585856130e9565b50505050565b60115481565b6060611e678261329a565b9050919050565b600d6020528160005260406000208181548110611e8a57600080fd5b90600052602060002001600091509150505481565b600e6020528060005260406000206000915054906101000a900473ffffffffffffffffffffffffffffffffffffffff1681565b803373ffffffffffffffffffffffffffffffffffffffff16600a600083815260200190815260200160002060070160019054906101000a900473ffffffffffffffffffffffffffffffffffffffff1673ffffffffffffffffffffffffffffffffffffffff1614611f77576040517f08c379a0000000000000000000000000000000000000000000000000000000008152600401611f6e906155fc565b60405180910390fd5b600a600083815260200190815260200160002060070160009054906101000a900460ff1615600a600084815260200190815260200160002060070160006101000a81548160ff0219169083151502179055505050565b6000600560008473ffffffffffffffffffffffffffffffffffffffff1673ffffffffffffffffffffffffffffffffffffffff16815260200190815260200160002060008373ffffffffffffffffffffffffffffffffffffffff1673ffffffffffffffffffffffffffffffffffffffff16815260200190815260200160002060009054906101000a900460ff16905092915050565b612069612900565b600073ffffffffffffffffffffffffffffffffffffffff168173ffffffffffffffffffffffffffffffffffffffff16036120db5760006040517f1e4fbdf70000000000000000000000000000000000000000000000000000000081526004016120d29190614457565b60405180910390fd5b6120e481612e51565b50565b6120ef6133ad565b6120f76133f3565b81600c600082815260200190815260200160002060009054906101000a900460ff16612158576040517f08c379a000000000000000000000000000000000000000000000000000000000815260040161214f90614df2565b60405180910390fd5b6000600a600085815260200190815260200160002090508060070160009054906101000a900460ff166121c0576040517f08c379a00000000000000000000000000000000000000000000000000000000081526004016121b790615704565b60405180910390fd5b806004015481600501541061220a576040517f08c379a000000000000000000000000000000000000000000000000000000000815260040161220190615770565b60405180910390fd5b8060030154341015612251576040517f08c379a0000000000000000000000000000000000000000000000000000000008152600401612248906157dc565b60405180910390fd5b80600601544210612297576040517f08c379a000000000000000000000000000000000000000000000000000000000815260040161228e90615848565b60405180910390fd5b600960008154809291906122aa906151fa565b9190505550600060095490506122c03382613434565b6122ca8185613452565b6001600f600083815260200190815260200160002060006101000a81548160ff02191690831515021790555081600501600081548092919061230b906151fa565b91905055506040518060c001604052808281526020018681526020013373ffffffffffffffffffffffffffffffffffffffff1681526020016000151581526020014281526020016000815250600b6000838152602001908152602001600020600082015181600001556020820151816001015560408201518160020160006101000a81548173ffffffffffffffffffffffffffffffffffffffff021916908373ffffffffffffffffffffffffffffffffffffffff16021790555060608201518160020160146101000a81548160ff0219169083151502179055506080820151816003015560a08201518160040155905050600d60003373ffffffffffffffffffffffffffffffffffffffff1673ffffffffffffffffffffffffffffffffffffffff1681526020019081526020016000208190806001815401808255809150506001900390600052602060002001600090919091909150556000612710601254346124759190615868565b61247f91906158d9565b90506000813461248f9190614fbc565b905060008460070160019054906101000a900473ffffffffffffffffffffffffffffffffffffffff1673ffffffffffffffffffffffffffffffffffffffff16826040516124db9061552f565b60006040518083038185875af1925050503d8060008114612518576040519150601f19603f3d011682016040523d82523d6000602084013e61251d565b606091505b5050905080612561576040517f08c379a000000000000000000000000000000000000000000000000000000000815260040161255890615956565b60405180910390fd5b82601160008282546125739190614ff0565b9250508190555084600301543411156126495760008560030154346125989190614fbc565b905060003373ffffffffffffffffffffffffffffffffffffffff16826040516125c09061552f565b60006040518083038185875af1925050503d80600081146125fd576040519150601f19603f3d011682016040523d82523d6000602084013e612602565b606091505b5050905080612646576040517f08c379a000000000000000000000000000000000000000000000000000000000815260040161263d906159c2565b60405180910390fd5b50505b87847fc3b7539e996dc1d1252af1e3c72474162b7a9c7cc7411ca8905732eaf6fff3283388600301546040516126809291906159e2565b60405180910390a35050505050506126966134ae565b5050565b6126a26140ab565b600f600083815260200190815260200160002060009054906101000a900460ff16612702576040517f08c379a00000000000000000000000000000000000000000000000000000000081526004016126f990614f01565b60405180910390fd5b600b60008381526020019081526020016000206040518060c001604052908160008201548152602001600182015481526020016002820160009054906101000a900473ffffffffffffffffffffffffffffffffffffffff1673ffffffffffffffffffffffffffffffffffffffff1673ffffffffffffffffffffffffffffffffffffffff1681526020016002820160149054906101000a900460ff16151515158152602001600382015481526020016004820154815250509050919050565b6000634906490660e01b7bffffffffffffffffffffffffffffffffffffffffffffffffffffffff1916827bffffffffffffffffffffffffffffffffffffffffffffffffffffffff1916148061281a5750612819826134b8565b5b9050919050565b60008061282d8361359a565b9050600073ffffffffffffffffffffffffffffffffffffffff168173ffffffffffffffffffffffffffffffffffffffff16036128a057826040517f7e2732890000000000000000000000000000000000000000000000000000000081526004016128979190614705565b60405180910390fd5b80915050919050565b60006004600083815260200190815260200160002060009054906101000a900473ffffffffffffffffffffffffffffffffffffffff169050919050565b600033905090565b6128fb83838360016135d7565b505050565b6129086128e6565b73ffffffffffffffffffffffffffffffffffffffff16612926611b9c565b73ffffffffffffffffffffffffffffffffffffffff1614612985576129496128e6565b6040517f118cdaa700000000000000000000000000000000000000000000000000000000815260040161297c9190614457565b60405180910390fd5b565b6000806129938461359a565b9050600073ffffffffffffffffffffffffffffffffffffffff168173ffffffffffffffffffffffffffffffffffffffff16141580156129ff5750600073ffffffffffffffffffffffffffffffffffffffff168573ffffffffffffffffffffffffffffffffffffffff1614155b8015612a285750600f600085815260200190815260200160002060009054906101000a900460ff165b15612be95784600b600086815260200190815260200160002060020160006101000a81548173ffffffffffffffffffffffffffffffffffffffff021916908373ffffffffffffffffffffffffffffffffffffffff1602179055506000600d60008373ffffffffffffffffffffffffffffffffffffffff1673ffffffffffffffffffffffffffffffffffffffff168152602001908152602001600020905060005b8180549050811015612b805785828281548110612ae857612ae7615a0b565b5b906000526020600020015403612b73578160018380549050612b0a9190614fbc565b81548110612b1b57612b1a615a0b565b5b9060005260206000200154828281548110612b3957612b38615a0b565b5b906000526020600020018190555081805480612b5857612b57615a3a565b5b60019003818190600052602060002001600090559055612b80565b8080600101915050612ac8565b50600d60008773ffffffffffffffffffffffffffffffffffffffff1673ffffffffffffffffffffffffffffffffffffffff168152602001908152602001600020859080600181540180825580915050600190039060005260206000200160009091909190915055505b612bf485858561379c565b9150509392505050565b600f600082815260200190815260200160002060009054906101000a900460ff16612c5e576040517f08c379a0000000000000000000000000000000000000000000000000000000008152600401612c5590614f01565b60405180910390fd5b6000600b600083815260200190815260200160002090506000612c8083611aaa565b90506000600d60008373ffffffffffffffffffffffffffffffffffffffff1673ffffffffffffffffffffffffffffffffffffffff168152602001908152602001600020905060005b8180549050811015612d805784828281548110612ce857612ce7615a0b565b5b906000526020600020015403612d73578160018380549050612d0a9190614fbc565b81548110612d1b57612d1a615a0b565b5b9060005260206000200154828281548110612d3957612d38615a0b565b5b906000526020600020018190555081805480612d5857612d57615a3a565b5b60019003818190600052602060002001600090559055612d80565b8080600101915050612cc8565b506000600f600086815260200190815260200160002060006101000a81548160ff021916908315150217905550612db6846137ba565b8260010154847fd49cbb19e134836fb8334c1c39901390e9f1634db4705e3f7006fcb21d5d4fe560405160405180910390a350505050565b612df6613840565b6000600760006101000a81548160ff0219169083151502179055507f5db9ee0a495bf2e6ff9c91a7834c1ba4fdd244a5e8aa4e537bd38aeae4b073aa612e3a6128e6565b604051612e479190614457565b60405180910390a1565b6000600760019054906101000a900473ffffffffffffffffffffffffffffffffffffffff16905081600760016101000a81548173ffffffffffffffffffffffffffffffffffffffff021916908373ffffffffffffffffffffffffffffffffffffffff1602179055508173ffffffffffffffffffffffffffffffffffffffff168173ffffffffffffffffffffffffffffffffffffffff167f8be0079c531659141344cd1fd0a4f28419497f9722a3daafe3b4186f6b6457e060405160405180910390a35050565b612f1f6133f3565b6001600760006101000a81548160ff0219169083151502179055507f62e78cea01bee320cd4e420270b5ea74000d11b0c9f74754ebdbfc544b05a258612f636128e6565b604051612f709190614457565b60405180910390a1565b600073ffffffffffffffffffffffffffffffffffffffff168273ffffffffffffffffffffffffffffffffffffffff1603612feb57816040517f5b08ba18000000000000000000000000000000000000000000000000000000008152600401612fe29190614457565b60405180910390fd5b80600560008573ffffffffffffffffffffffffffffffffffffffff1673ffffffffffffffffffffffffffffffffffffffff16815260200190815260200160002060008473ffffffffffffffffffffffffffffffffffffffff1673ffffffffffffffffffffffffffffffffffffffff16815260200190815260200160002060006101000a81548160ff0219169083151502179055508173ffffffffffffffffffffffffffffffffffffffff168373ffffffffffffffffffffffffffffffffffffffff167f17307eab39ab6107e8899845ad3d59bd9653f200f220920489ca2b5937696c31836040516130dc919061418b565b60405180910390a3505050565b60008373ffffffffffffffffffffffffffffffffffffffff163b1115613293578273ffffffffffffffffffffffffffffffffffffffff1663150b7a02868685856040518563ffffffff1660e01b81526004016131489493929190615abe565b6020604051808303816000875af192505050801561318457506040513d601f19601f820116820180604052508101906131819190615b1f565b60015b613208573d80600081146131b4576040519150601f19603f3d011682016040523d82523d6000602084013e6131b9565b606091505b50600081510361320057836040517f64a0ae920000000000000000000000000000000000000000000000000000000081526004016131f79190614457565b60405180910390fd5b805181602001fd5b63150b7a0260e01b7bffffffffffffffffffffffffffffffffffffffffffffffffffffffff1916817bffffffffffffffffffffffffffffffffffffffffffffffffffffffff19161461329157836040517f64a0ae920000000000000000000000000000000000000000000000000000000081526004016132889190614457565b60405180910390fd5b505b5050505050565b60606132a582612821565b5060006006600084815260200190815260200160002080546132c690614d09565b80601f01602080910402602001604051908101604052809291908181526020018280546132f290614d09565b801561333f5780601f106133145761010080835404028352916020019161333f565b820191906000526020600020905b81548152906001019060200180831161332257829003601f168201915b505050505090506000613350613880565b905060008151036133655781925050506133a8565b60008251111561339a578082604051602001613382929190615b88565b604051602081830303815290604052925050506133a8565b6133a384613897565b925050505b919050565b6002600854036133e9576040517f3ee5aeb500000000000000000000000000000000000000000000000000000000815260040160405180910390fd5b6002600881905550565b6133fb611a93565b15613432576040517fd93c066500000000000000000000000000000000000000000000000000000000815260040160405180910390fd5b565b61344e828260405180602001604052806000815250613900565b5050565b8060066000848152602001908152602001600020908161347291906153ee565b507ff8e1a15aba9398e019f0b49df1a4fde98ee17ae345cb5f6b5e2c27f5033e8ce7826040516134a29190614705565b60405180910390a15050565b6001600881905550565b60007f80ac58cd000000000000000000000000000000000000000000000000000000007bffffffffffffffffffffffffffffffffffffffffffffffffffffffff1916827bffffffffffffffffffffffffffffffffffffffffffffffffffffffff1916148061358357507f5b5e139f000000000000000000000000000000000000000000000000000000007bffffffffffffffffffffffffffffffffffffffffffffffffffffffff1916827bffffffffffffffffffffffffffffffffffffffffffffffffffffffff1916145b80613593575061359282613924565b5b9050919050565b60006002600083815260200190815260200160002060009054906101000a900473ffffffffffffffffffffffffffffffffffffffff169050919050565b80806136105750600073ffffffffffffffffffffffffffffffffffffffff168273ffffffffffffffffffffffffffffffffffffffff1614155b1561374457600061362084612821565b9050600073ffffffffffffffffffffffffffffffffffffffff168373ffffffffffffffffffffffffffffffffffffffff161415801561368b57508273ffffffffffffffffffffffffffffffffffffffff168173ffffffffffffffffffffffffffffffffffffffff1614155b801561369e575061369c8184611fcd565b155b156136e057826040517fa9fbf51f0000000000000000000000000000000000000000000000000000000081526004016136d79190614457565b60405180910390fd5b811561374257838573ffffffffffffffffffffffffffffffffffffffff168273ffffffffffffffffffffffffffffffffffffffff167f8c5be1e5ebec7d5bd14f71427d1e84f3dd0314c0f7b2291e5b200ac8c7c3b92560405160405180910390a45b505b836004600085815260200190815260200160002060006101000a81548173ffffffffffffffffffffffffffffffffffffffff021916908373ffffffffffffffffffffffffffffffffffffffff16021790555050505050565b60006137a66133f3565b6137b184848461398e565b90509392505050565b60006137c96000836000612987565b9050600073ffffffffffffffffffffffffffffffffffffffff168173ffffffffffffffffffffffffffffffffffffffff160361383c57816040517f7e2732890000000000000000000000000000000000000000000000000000000081526004016138339190614705565b60405180910390fd5b5050565b613848611a93565b61387e576040517f8dfc202b00000000000000000000000000000000000000000000000000000000815260040160405180910390fd5b565b606060405180602001604052806000815250905090565b60606138a282612821565b5060006138ad613880565b905060008151116138cd57604051806020016040528060008152506138f8565b806138d784613ba8565b6040516020016138e8929190615b88565b6040516020818303038152906040525b915050919050565b61390a8383613c76565b61391f6139156128e6565b60008585856130e9565b505050565b60007f01ffc9a7000000000000000000000000000000000000000000000000000000007bffffffffffffffffffffffffffffffffffffffffffffffffffffffff1916827bffffffffffffffffffffffffffffffffffffffffffffffffffffffff1916149050919050565b60008061399a8461359a565b9050600073ffffffffffffffffffffffffffffffffffffffff168373ffffffffffffffffffffffffffffffffffffffff16146139dc576139db818486613d6f565b5b600073ffffffffffffffffffffffffffffffffffffffff168173ffffffffffffffffffffffffffffffffffffffff1614613a6d57613a1e6000856000806135d7565b6001600360008373ffffffffffffffffffffffffffffffffffffffff1673ffffffffffffffffffffffffffffffffffffffff168152602001908152602001600020600082825403925050819055505b600073ffffffffffffffffffffffffffffffffffffffff168573ffffffffffffffffffffffffffffffffffffffff1614613af0576001600360008773ffffffffffffffffffffffffffffffffffffffff1673ffffffffffffffffffffffffffffffffffffffff168152602001908152602001600020600082825401925050819055505b846002600086815260200190815260200160002060006101000a81548173ffffffffffffffffffffffffffffffffffffffff021916908373ffffffffffffffffffffffffffffffffffffffff160217905550838573ffffffffffffffffffffffffffffffffffffffff168273ffffffffffffffffffffffffffffffffffffffff167fddf252ad1be2c89b69c2b068fc378daa952ba7f163c4a11628f55a4df523b3ef60405160405180910390a4809150509392505050565b606060006001613bb784613e33565b01905060008167ffffffffffffffff811115613bd657613bd561472a565b5b6040519080825280601f01601f191660200182016040528015613c085781602001600182028036833780820191505090505b509050600082602001820190505b600115613c6b578080600190039150507f3031323334353637383961626364656600000000000000000000000000000000600a86061a8153600a8581613c5f57613c5e6158aa565b5b04945060008503613c16575b819350505050919050565b600073ffffffffffffffffffffffffffffffffffffffff168273ffffffffffffffffffffffffffffffffffffffff1603613ce85760006040517f64a0ae92000000000000000000000000000000000000000000000000000000008152600401613cdf9190614457565b60405180910390fd5b6000613cf683836000612987565b9050600073ffffffffffffffffffffffffffffffffffffffff168173ffffffffffffffffffffffffffffffffffffffff1614613d6a5760006040517f73c6ac6e000000000000000000000000000000000000000000000000000000008152600401613d619190614457565b60405180910390fd5b505050565b613d7a838383613f86565b613e2e57600073ffffffffffffffffffffffffffffffffffffffff168373ffffffffffffffffffffffffffffffffffffffff1603613def57806040517f7e273289000000000000000000000000000000000000000000000000000000008152600401613de69190614705565b60405180910390fd5b81816040517f177e802f000000000000000000000000000000000000000000000000000000008152600401613e259291906159e2565b60405180910390fd5b505050565b600080600090507a184f03e93ff9f4daa797ed6e38ed64bf6a1f0100000000000000008310613e91577a184f03e93ff9f4daa797ed6e38ed64bf6a1f0100000000000000008381613e8757613e866158aa565b5b0492506040810190505b6d04ee2d6d415b85acef81000000008310613ece576d04ee2d6d415b85acef81000000008381613ec457613ec36158aa565b5b0492506020810190505b662386f26fc100008310613efd57662386f26fc100008381613ef357613ef26158aa565b5b0492506010810190505b6305f5e1008310613f26576305f5e1008381613f1c57613f1b6158aa565b5b0492506008810190505b6127108310613f4b576127108381613f4157613f406158aa565b5b0492506004810190505b60648310613f6e5760648381613f6457613f636158aa565b5b0492506002810190505b600a8310613f7d576001810190505b80915050919050565b60008073ffffffffffffffffffffffffffffffffffffffff168373ffffffffffffffffffffffffffffffffffffffff161415801561403e57508273ffffffffffffffffffffffffffffffffffffffff168473ffffffffffffffffffffffffffffffffffffffff161480613fff5750613ffe8484611fcd565b5b8061403d57508273ffffffffffffffffffffffffffffffffffffffff16614025836128a9565b73ffffffffffffffffffffffffffffffffffffffff16145b5b90509392505050565b60405180610120016040528060008152602001606081526020016060815260200160008152602001600081526020016000815260200160008152602001600015158152602001600073ffffffffffffffffffffffffffffffffffffffff1681525090565b6040518060c001604052806000815260200160008152602001600073ffffffffffffffffffffffffffffffffffffffff16815260200160001515815260200160008152602001600081525090565b6000604051905090565b600080fd5b600080fd5b6000819050919050565b6141208161410d565b811461412b57600080fd5b50565b60008135905061413d81614117565b92915050565b60006020828403121561415957614158614103565b5b60006141678482850161412e565b91505092915050565b60008115159050919050565b61418581614170565b82525050565b60006020820190506141a0600083018461417c565b92915050565b60007fffffffff0000000000000000000000000000000000000000000000000000000082169050919050565b6141db816141a6565b81146141e657600080fd5b50565b6000813590506141f8816141d2565b92915050565b60006020828403121561421457614213614103565b5b6000614222848285016141e9565b91505092915050565b600073ffffffffffffffffffffffffffffffffffffffff82169050919050565b60006142568261422b565b9050919050565b6142668161424b565b811461427157600080fd5b50565b6000813590506142838161425d565b92915050565b60006020828403121561429f5761429e614103565b5b60006142ad84828501614274565b91505092915050565b600081519050919050565b600082825260208201905092915050565b6000819050602082019050919050565b6142eb8161410d565b82525050565b60006142fd83836142e2565b60208301905092915050565b6000602082019050919050565b6000614321826142b6565b61432b81856142c1565b9350614336836142d2565b8060005b8381101561436757815161434e88826142f1565b975061435983614309565b92505060018101905061433a565b5085935050505092915050565b6000602082019050818103600083015261438e8184614316565b905092915050565b600081519050919050565b600082825260208201905092915050565b60005b838110156143d05780820151818401526020810190506143b5565b60008484015250505050565b6000601f19601f8301169050919050565b60006143f882614396565b61440281856143a1565b93506144128185602086016143b2565b61441b816143dc565b840191505092915050565b6000602082019050818103600083015261444081846143ed565b905092915050565b6144518161424b565b82525050565b600060208201905061446c6000830184614448565b92915050565b6000806040838503121561448957614488614103565b5b600061449785828601614274565b92505060206144a88582860161412e565b9150509250929050565b6144bb8161410d565b82525050565b6000610120820190506144d7600083018c6144b2565b81810360208301526144e9818b6143ed565b905081810360408301526144fd818a6143ed565b905061450c60608301896144b2565b61451960808301886144b2565b61452660a08301876144b2565b61453360c08301866144b2565b61454060e083018561417c565b61454e610100830184614448565b9a9950505050505050505050565b600082825260208201905092915050565b600061457882614396565b614582818561455c565b93506145928185602086016143b2565b61459b816143dc565b840191505092915050565b6145af81614170565b82525050565b6145be8161424b565b82525050565b6000610120830160008301516145dd60008601826142e2565b50602083015184820360208601526145f5828261456d565b9150506040830151848203604086015261460f828261456d565b915050606083015161462460608601826142e2565b50608083015161463760808601826142e2565b5060a083015161464a60a08601826142e2565b5060c083015161465d60c08601826142e2565b5060e083015161467060e08601826145a6565b506101008301516146856101008601826145b5565b508091505092915050565b600060208201905081810360008301526146aa81846145c4565b905092915050565b6000806000606084860312156146cb576146ca614103565b5b60006146d986828701614274565b93505060206146ea86828701614274565b92505060406146fb8682870161412e565b9150509250925092565b600060208201905061471a60008301846144b2565b92915050565b600080fd5b600080fd5b7f4e487b7100000000000000000000000000000000000000000000000000000000600052604160045260246000fd5b614762826143dc565b810181811067ffffffffffffffff821117156147815761478061472a565b5b80604052505050565b60006147946140f9565b90506147a08282614759565b919050565b600067ffffffffffffffff8211156147c0576147bf61472a565b5b6147c9826143dc565b9050602081019050919050565b82818337600083830152505050565b60006147f86147f3846147a5565b61478a565b90508281526020810184848401111561481457614813614725565b5b61481f8482856147d6565b509392505050565b600082601f83011261483c5761483b614720565b5b813561484c8482602086016147e5565b91505092915050565b600080600080600060a0868803121561487157614870614103565b5b600086013567ffffffffffffffff81111561488f5761488e614108565b5b61489b88828901614827565b955050602086013567ffffffffffffffff8111156148bc576148bb614108565b5b6148c888828901614827565b94505060406148d98882890161412e565b93505060606148ea8882890161412e565b92505060806148fb8882890161412e565b9150509295509295909350565b600060c08201905061491d60008301896144b2565b61492a60208301886144b2565b6149376040830187614448565b614944606083018661417c565b61495160808301856144b2565b61495e60a08301846144b2565b979650505050505050565b60008060006060848603121561498257614981614103565b5b60006149908682870161412e565b935050602084013567ffffffffffffffff8111156149b1576149b0614108565b5b6149bd86828701614827565b92505060406149ce8682870161412e565b9150509250925092565b6149e181614170565b81146149ec57600080fd5b50565b6000813590506149fe816149d8565b92915050565b60008060408385031215614a1b57614a1a614103565b5b6000614a2985828601614274565b9250506020614a3a858286016149ef565b9150509250929050565b60008060408385031215614a5b57614a5a614103565b5b6000614a698582860161412e565b9250506020614a7a85828601614274565b9150509250929050565b600067ffffffffffffffff821115614a9f57614a9e61472a565b5b614aa8826143dc565b9050602081019050919050565b6000614ac8614ac384614a84565b61478a565b905082815260208101848484011115614ae457614ae3614725565b5b614aef8482856147d6565b509392505050565b600082601f830112614b0c57614b0b614720565b5b8135614b1c848260208601614ab5565b91505092915050565b60008060008060808587031215614b3f57614b3e614103565b5b6000614b4d87828801614274565b9450506020614b5e87828801614274565b9350506040614b6f8782880161412e565b925050606085013567ffffffffffffffff811115614b9057614b8f614108565b5b614b9c87828801614af7565b91505092959194509250565b60008060408385031215614bbf57614bbe614103565b5b6000614bcd85828601614274565b9250506020614bde85828601614274565b9150509250929050565b60008060408385031215614bff57614bfe614103565b5b6000614c0d8582860161412e565b925050602083013567ffffffffffffffff811115614c2e57614c2d614108565b5b614c3a85828601614827565b9150509250929050565b60c082016000820151614c5a60008501826142e2565b506020820151614c6d60208501826142e2565b506040820151614c8060408501826145b5565b506060820151614c9360608501826145a6565b506080820151614ca660808501826142e2565b5060a0820151614cb960a08501826142e2565b50505050565b600060c082019050614cd46000830184614c44565b92915050565b7f4e487b7100000000000000000000000000000000000000000000000000000000600052602260045260246000fd5b60006002820490506001821680614d2157607f821691505b602082108103614d3457614d33614cda565b5b50919050565b7f46656520746f6f20686967680000000000000000000000000000000000000000600082015250565b6000614d70600c836143a1565b9150614d7b82614d3a565b602082019050919050565b60006020820190508181036000830152614d9f81614d63565b9050919050565b7f4576656e7420646f6573206e6f74206578697374000000000000000000000000600082015250565b6000614ddc6014836143a1565b9150614de782614da6565b602082019050919050565b60006020820190508181036000830152614e0b81614dcf565b9050919050565b6000606082019050614e276000830186614448565b614e3460208301856144b2565b614e416040830184614448565b949350505050565b7f4e6f7420617574686f72697a6564207665726966696572000000000000000000600082015250565b6000614e7f6017836143a1565b9150614e8a82614e49565b602082019050919050565b60006020820190508181036000830152614eae81614e72565b9050919050565b7f5469636b657420646f6573206e6f742065786973740000000000000000000000600082015250565b6000614eeb6015836143a1565b9150614ef682614eb5565b602082019050919050565b60006020820190508181036000830152614f1a81614ede565b9050919050565b7f5469636b657420616c7265616479207573656400000000000000000000000000600082015250565b6000614f576013836143a1565b9150614f6282614f21565b602082019050919050565b60006020820190508181036000830152614f8681614f4a565b9050919050565b7f4e487b7100000000000000000000000000000000000000000000000000000000600052601160045260246000fd5b6000614fc78261410d565b9150614fd28361410d565b9250828203905081811115614fea57614fe9614f8d565b5b92915050565b6000614ffb8261410d565b91506150068361410d565b925082820190508082111561501e5761501d614f8d565b5b92915050565b7f4576656e74206163636573732077696e646f7720636c6f736564000000000000600082015250565b600061505a601a836143a1565b915061506582615024565b602082019050919050565b600060208201905081810360008301526150898161504d565b9050919050565b7f4576656e74206e616d652063616e6e6f7420626520656d707479000000000000600082015250565b60006150c6601a836143a1565b91506150d182615090565b602082019050919050565b600060208201905081810360008301526150f5816150b9565b9050919050565b7f4d617820737570706c79206d7573742062652067726561746572207468616e2060008201527f3000000000000000000000000000000000000000000000000000000000000000602082015250565b60006151586021836143a1565b9150615163826150fc565b604082019050919050565b600060208201905081810360008301526151878161514b565b9050919050565b7f4576656e742064617465206d75737420626520696e2074686520667574757265600082015250565b60006151c46020836143a1565b91506151cf8261518e565b602082019050919050565b600060208201905081810360008301526151f3816151b7565b9050919050565b60006152058261410d565b91507fffffffffffffffffffffffffffffffffffffffffffffffffffffffffffffffff820361523757615236614f8d565b5b600182019050919050565b60008190508160005260206000209050919050565b60006020601f8301049050919050565b600082821b905092915050565b6000600883026152a47fffffffffffffffffffffffffffffffffffffffffffffffffffffffffffffffff82615267565b6152ae8683615267565b95508019841693508086168417925050509392505050565b6000819050919050565b60006152eb6152e66152e18461410d565b6152c6565b61410d565b9050919050565b6000819050919050565b615305836152d0565b615319615311826152f2565b848454615274565b825550505050565b600090565b61532e615321565b6153398184846152fc565b505050565b5b8181101561535d57615352600082615326565b60018101905061533f565b5050565b601f8211156153a25761537381615242565b61537c84615257565b8101602085101561538b578190505b61539f61539785615257565b83018261533e565b50505b505050565b600082821c905092915050565b60006153c5600019846008026153a7565b1980831691505092915050565b60006153de83836153b4565b9150826002028217905092915050565b6153f782614396565b67ffffffffffffffff8111156154105761540f61472a565b5b61541a8254614d09565b615425828285615361565b600060209050601f8311600181146154585760008415615446578287015190505b61545085826153d2565b8655506154b8565b601f19841661546686615242565b60005b8281101561548e57848901518255600182019150602085019450602081019050615469565b868310156154ab57848901516154a7601f8916826153b4565b8355505b6001600288020188555050505b505050505050565b600060608201905081810360008301526154da81866143ed565b90506154e960208301856144b2565b6154f660408301846144b2565b949350505050565b600081905092915050565b50565b60006155196000836154fe565b915061552482615509565b600082019050919050565b600061553a8261550c565b9150819050919050565b7f5769746864726177616c206661696c6564000000000000000000000000000000600082015250565b600061557a6011836143a1565b915061558582615544565b602082019050919050565b600060208201905081810360008301526155a98161556d565b9050919050565b7f4e6f74206576656e74206f7267616e697a657200000000000000000000000000600082015250565b60006155e66013836143a1565b91506155f1826155b0565b602082019050919050565b60006020820190508181036000830152615615816155d9565b9050919050565b6000604082019050818103600083015261563681856143ed565b905061564560208301846144b2565b9392505050565b7f496e76616c696420766572696669657220616464726573730000000000000000600082015250565b60006156826018836143a1565b915061568d8261564c565b602082019050919050565b600060208201905081810360008301526156b181615675565b9050919050565b7f4576656e74206973206e6f742061637469766500000000000000000000000000600082015250565b60006156ee6013836143a1565b91506156f9826156b8565b602082019050919050565b6000602082019050818103600083015261571d816156e1565b9050919050565b7f4576656e7420736f6c64206f7574000000000000000000000000000000000000600082015250565b600061575a600e836143a1565b915061576582615724565b602082019050919050565b600060208201905081810360008301526157898161574d565b9050919050565b7f496e73756666696369656e74207061796d656e74000000000000000000000000600082015250565b60006157c66014836143a1565b91506157d182615790565b602082019050919050565b600060208201905081810360008301526157f5816157b9565b9050919050565b7f4576656e742068617320616c7265616479207061737365640000000000000000600082015250565b60006158326018836143a1565b915061583d826157fc565b602082019050919050565b6000602082019050818103600083015261586181615825565b9050919050565b60006158738261410d565b915061587e8361410d565b925082820261588c8161410d565b915082820484148315176158a3576158a2614f8d565b5b5092915050565b7f4e487b7100000000000000000000000000000000000000000000000000000000600052601260045260246000fd5b60006158e48261410d565b91506158ef8361410d565b9250826158ff576158fe6158aa565b5b828204905092915050565b7f5061796d656e7420746f206f7267616e697a6572206661696c65640000000000600082015250565b6000615940601b836143a1565b915061594b8261590a565b602082019050919050565b6000602082019050818103600083015261596f81615933565b9050919050565b7f526566756e64206661696c656400000000000000000000000000000000000000600082015250565b60006159ac600d836143a1565b91506159b782615976565b602082019050919050565b600060208201905081810360008301526159db8161599f565b9050919050565b60006040820190506159f76000830185614448565b615a0460208301846144b2565b9392505050565b7f4e487b7100000000000000000000000000000000000000000000000000000000600052603260045260246000fd5b7f4e487b7100000000000000000000000000000000000000000000000000000000600052603160045260246000fd5b600081519050919050565b600082825260208201905092915050565b6000615a9082615a69565b615a9a8185615a74565b9350615aaa8185602086016143b2565b615ab3816143dc565b840191505092915050565b6000608082019050615ad36000830187614448565b615ae06020830186614448565b615aed60408301856144b2565b8181036060830152615aff8184615a85565b905095945050505050565b600081519050615b19816141d2565b92915050565b600060208284031215615b3557615b34614103565b5b6000615b4384828501615b0a565b91505092915050565b600081905092915050565b6000615b6282614396565b615b6c8185615b4c565b9350615b7c8185602086016143b2565b80840191505092915050565b6000615b948285615b57565b9150615ba08284615b57565b9150819050939250505056fea2646970667358221220525e9bd3ec5e42a4291cee3a3f40f982530f9066bba12598d56c3efd00fe59df64736f6c634300081c0033",
  "linkReferences": {},
  "deployedLinkReferences": {}
}