{
  "_format": "hh-sol-artifact-1",
  "contractName": "TicketMarketplace",
  "sourceName": "contracts/TicketMarketplace.sol",
  "abi": [
    {
      "inputs": [],
      "stateMutability": "nonpayable",
      "type": "constructor"
    },
    {
      "inputs": [
        {
          "internalType": "address",
          "name": "sender",
          "type": "address"
        },
        {
          "internalType": "uint256",
          "name": "tokenId",
          "type": "uint256"
        },
        {
          "internalType": "address",
          "name": "owner",
          "type": "address"
        }
      ],
      "name": "ERC721IncorrectOwner",
      "type": "error"
    },
    {
      "inputs": [
        {
          "internalType": "address",
          "name": "operator",
          "type": "address"
        },
        {
          "internalType": "uint256",
          "name": "tokenId",
          "type": "uint256"
        }
      ],
      "name": "ERC721InsufficientApproval",
      "type": "error"
    },
    {
      "inputs": [
        {
          "internalType": "address",
          "name": "approver",
          "type": "address"
        }
      ],
      "name": "ERC721InvalidApprover",
      "type": "error"
    },
    {
      "inputs": [
        {
          "internalType": "address",
          "name": "operator",
          "type": "address"
        }
      ],
      "name": "ERC721InvalidOperator",
      "type": "error"
    },
    {
      "inputs": [
        {
          "internalType": "address",
          "name": "owner",
          "type": "address"
        }
      ],
      "name": "ERC721InvalidOwner",
      "type": "error"
    },
    {
      "inputs": [
        {
          "internalType": "address",
          "name": "receiver",
          "type": "address"
        }
      ],
      "name": "ERC721InvalidReceiver",
      "type": "error"
    },
    {
      "inputs": [
        {
          "internalType": "address",
          "name": "sender",
          "type": "address"
        }
      ],
      "name": "ERC721InvalidSender",
      "type": "error"
    },
    {
      "inputs": [
        {
          "internalType": "uint256",
          "name": "tokenId",
          "type": "uint256"
        }
      ],
      "name": "ERC721NonexistentToken",
      "type": "error"
    },
    {
      "inputs": [],
      "name": "EnforcedPause",
      "type": "error"
    },
    {
      "inputs": [],
      "name": "ExpectedPause",
      "type": "error"
    },
    {
      "inputs": [
        {
          "internalType": "address",
          "name": "owner",
          "type": "address"
        }
      ],
      "name": "OwnableInvalidOwner",
      "type": "error"
    },
    {
      "inputs": [
        {
          "internalType": "address",
          "name": "account",
          "type": "address"
        }
      ],
      "name": "OwnableUnauthorizedAccount",
      "type": "error"
    },
    {
      "inputs": [],
      "name": "ReentrancyGuardReentrantCall",
      "type": "error"
    },
    {
      "anonymous": false,
      "inputs": [
        {
          "indexed": true,
          "internalType": "address",
          "name": "owner",
          "type": "address"
        },
        {
          "indexed": true,
          "internalType": "address",
          "name": "approved",
          "type": "address"
        },
        {
          "indexed": true,
          "internalType": "uint256",
          "name": "tokenId",
          "type": "uint256"
        }
      ],
      "name": "Approval",
      "type": "event"
    },
    {
      "anonymous": false,
      "inputs": [
        {
          "indexed": true,
          "internalType": "address",
          "name": "owner",
          "type": "address"
        },
        {
          "indexed": true,
          "internalType": "address",
          "name": "operator",
          "type": "address"
        },
        {
          "indexed": false,
          "internalType": "bool",
          "name": "approved",
          "type": "bool"
        }
      ],
      "name": "ApprovalForAll",
      "type": "event"
    },
    {
      "anonymous": false,
      "inputs": [
        {
          "indexed": false,
          "internalType": "uint256",
          "name": "_fromTokenId",
          "type": "uint256"
        },
        {
          "indexed": false,
          "internalType": "uint256",
          "name": "_toTokenId",
          "type": "uint256"
        }
      ],
      "name": "BatchMetadataUpdate",
      "type": "event"
    },
    {
      "anonymous": false,
      "inputs": [
        {
          "indexed": true,
          "internalType": "uint256",
          "name": "eventId",
          "type": "uint256"
        },
        {
          "indexed": false,
          "internalType": "string",
          "name": "name",
          "type": "string"
        },
        {
          "indexed": false,
          "internalType": "uint256",
          "name": "price",
          "type": "uint256"
        },
        {
          "indexed": false,
          "internalType": "uint256",
          "name": "maxSupply",
          "type": "uint256"
        }
      ],
      "name": "EventCreated",
      "type": "event"
    },
    {
      "anonymous": false,
      "inputs": [
        {
          "indexed": true,
          "internalType": "uint256",
          "name": "eventId",
          "type": "uint256"
        },
        {
          "indexed": false,
          "internalType": "string",
          "name": "name",
          "type": "string"
        },
        {
          "indexed": false,
          "internalType": "uint256",
          "name": "price",
          "type": "uint256"
        }
      ],
      "name": "EventUpdated",
      "type": "event"
    },
    {
      "anonymous": false,
      "inputs": [
        {
          "indexed": false,
          "internalType": "uint256",
          "name": "_tokenId",
          "type": "uint256"
        }
      ],
      "name": "MetadataUpdate",
      "type": "event"
    },
    {
      "anonymous": false,
      "inputs": [
        {
          "indexed": true,
          "internalType": "address",
          "name": "previousOwner",
          "type": "address"
        },
        {
          "indexed": true,
          "internalType": "address",
          "name": "newOwner",
          "type": "address"
        }
      ],
      "name": "OwnershipTransferred",
      "type": "event"
    },
    {
      "anonymous": false,
      "inputs": [
        {
          "indexed": false,
          "internalType": "address",
          "name": "account",
          "type": "address"
        }
      ],
      "name": "Paused",
      "type": "event"
    },
    {
      "anonymous": false,
      "inputs": [
        {
          "indexed": true,
          "internalType": "uint256",
          "name": "tokenId",
          "type": "uint256"
        },
        {
          "indexed": true,
          "internalType": "uint256",
          "name": "eventId",
          "type": "uint256"
        }
      ],
      "name": "TicketBurned",
      "type": "event"
    },
    {
      "anonymous": false,
      "inputs": [
        {
          "indexed": true,
          "internalType": "uint256",
          "name": "tokenId",
          "type": "uint256"
        },
        {
          "indexed": true,
          "internalType": "uint256",
          "name": "eventId",
          "type": "uint256"
        },
        {
          "indexed": false,
          "internalType": "address",
          "name": "buyer",
          "type": "address"
        },
        {
          "indexed": false,
          "internalType": "uint256",
          "name": "price",
          "type": "uint256"
        }
      ],
      "name": "TicketPurchased",
      "type": "event"
    },
    {
      "anonymous": false,
      "inputs": [
        {
          "indexed": true,
          "internalType": "uint256",
          "name": "tokenId",
          "type": "uint256"
        },
        {
          "indexed": true,
          "internalType": "uint256",
          "name": "eventId",
          "type": "uint256"
        },
        {
          "indexed": false,
          "internalType": "address",
          "name": "verifier",
          "type": "address"
        }
      ],
      "name": "TicketUsed",
      "type": "event"
    },
    {
      "anonymous": false,
      "inputs": [
        {
          "indexed": true,
          "internalType": "address",
          "name": "from",
          "type": "address"
        },
        {
          "indexed": true,
          "internalType": "address",
          "name": "to",
          "type": "address"
        },
        {
          "indexed": true,
          "internalType": "uint256",
          "name": "tokenId",
          "type": "uint256"
        }
      ],
      "name": "Transfer",
      "type": "event"
    },
    {
      "anonymous": false,
      "inputs": [
        {
          "indexed": false,
          "internalType": "address",
          "name": "account",
          "type": "address"
        }
      ],
      "name": "Unpaused",
      "type": "event"
    },
    {
      "anonymous": false,
      "inputs": [
        {
          "indexed": true,
          "internalType": "uint256",
          "name": "eventId",
          "type": "uint256"
        },
        {
          "indexed": false,
          "internalType": "address",
          "name": "verifier",
          "type": "address"
        }
      ],
      "name": "VerifierAdded",
      "type": "event"
    },
    {
      "anonymous": false,
      "inputs": [
        {
          "indexed": true,
          "internalType": "uint256",
          "name": "eventId",
          "type": "uint256"
        },
        {
          "indexed": false,
          "internalType": "address",
          "name": "verifier",
          "type": "address"
        }
      ],
      "name": "VerifierRemoved",
      "type": "event"
    },
    {
      "inputs": [],
      "name": "MAX_PLATFORM_FEE",
      "outputs": [
        {
          "internalType": "uint256",
          "name": "",
          "type": "uint256"
        }
      ],
      "stateMutability": "view",
      "type": "function"
    },
    {
      "inputs": [
        {
          "internalType": "uint256",
          "name": "eventId",
          "type": "uint256"
        },
        {
          "internalType": "address",
          "name": "verifier",
          "type": "address"
        }
      ],
      "name": "addVerifier",
      "outputs": [],
      "stateMutability": "nonpayable",
      "type": "function"
    },
    {
      "inputs": [
        {
          "internalType": "address",
          "name": "to",
          "type": "address"
        },
        {
          "internalType": "uint256",
          "name": "tokenId",
          "type": "uint256"
        }
      ],
      "name": "approve",
      "outputs": [],
      "stateMutability": "nonpayable",
      "type": "function"
    },
    {
      "inputs": [
        {
          "internalType": "uint256",
          "name": "",
          "type": "uint256"
        }
      ],
      "name": "authorizedVerifiers",
      "outputs": [
        {
          "internalType": "address",
          "name": "",
          "type": "address"
        }
      ],
      "stateMutability": "view",
      "type": "function"
    },
    {
      "inputs": [
        {
          "internalType": "address",
          "name": "owner",
          "type": "address"
        }
      ],
      "name": "balanceOf",
      "outputs": [
        {
          "internalType": "uint256",
          "name": "",
          "type": "uint256"
        }
      ],
      "stateMutability": "view",
      "type": "function"
    },
    {
      "inputs": [
        {
          "internalType": "uint256",
          "name": "tokenId",
          "type": "uint256"
        }
      ],
      "name": "burn",
      "outputs": [],
      "stateMutability": "nonpayable",
      "type": "function"
    },
    {
      "inputs": [
        {
          "internalType": "string",
          "name": "name",
          "type": "string"
        },
        {
          "internalType": "string",
          "name": "description",
          "type": "string"
        },
        {
          "internalType": "uint256",
          "name": "price",
          "type": "uint256"
        },
        {
          "internalType": "uint256",
          "name": "maxSupply",
          "type": "uint256"
        },
        {
          "internalType": "uint256",
          "name": "eventDate",
          "type": "uint256"
        }
      ],
      "name": "createEvent",
      "outputs": [
        {
          "internalType": "uint256",
          "name": "",
          "type": "uint256"
        }
      ],
      "stateMutability": "nonpayable",
      "type": "function"
    },
    {
      "inputs": [],
      "name": "eventCounter",
      "outputs": [
        {
          "internalType": "uint256",
          "name": "",
          "type": "uint256"
        }
      ],
      "stateMutability": "view",
      "type": "function"
    },
    {
      "inputs": [
        {
          "internalType": "uint256",
          "name": "",
          "type": "uint256"
        }
      ],
      "name": "eventExists",
      "outputs": [
        {
          "internalType": "bool",
          "name": "",
          "type": "bool"
        }
      ],
      "stateMutability": "view",
      "type": "function"
    },
    {
      "inputs": [
        {
          "internalType": "uint256",
          "name": "",
          "type": "uint256"
        }
      ],
      "name": "events",
      "outputs": [
        {
          "internalType": "uint256",
          "name": "eventId",
          "type": "uint256"
        },
        {
          "internalType": "string",
          "name": "name",
          "type": "string"
        },
        {
          "internalType": "string",
          "name": "description",
          "type": "string"
        },
        {
          "internalType": "uint256",
          "name": "price",
          "type": "uint256"
        },
        {
          "internalType": "uint256",
          "name": "maxSupply",
          "type": "uint256"
        },
        {
          "internalType": "uint256",
          "name": "currentSupply",
          "type": "uint256"
        },
        {
          "internalType": "uint256",
          "name": "eventDate",
          "type": "uint256"
        },
        {
          "internalType": "bool",
          "name": "isActive",
          "type": "bool"
        },
        {
          "internalType": "address",
          "name": "organizer",
          "type": "address"
        }
      ],
      "stateMutability": "view",
      "type": "function"
    },
    {
      "inputs": [
        {
          "internalType": "uint256",
          "name": "tokenId",
          "type": "uint256"
        }
      ],
      "name": "getApproved",
      "outputs": [
        {
          "internalType": "address",
          "name": "",
          "type": "address"
        }
      ],
      "stateMutability": "view",
      "type": "function"
    },
    {
      "inputs": [
        {
          "internalType": "uint256",
          "name": "eventId",
          "type": "uint256"
        }
      ],
      "name": "getEventInfo",
      "outputs": [
        {
          "components": [
            {
              "internalType": "uint256",
              "name": "eventId",
              "type": "uint256"
            },
            {
              "internalType": "string",
              "name": "name",
              "type": "string"
            },
            {
              "internalType": "string",
              "name": "description",
              "type": "string"
            },
            {
              "internalType": "uint256",
              "name": "price",
              "type": "uint256"
            },
            {
              "internalType": "uint256",
              "name": "maxSupply",
              "type": "uint256"
            },
            {
              "internalType": "uint256",
              "name": "currentSupply",
              "type": "uint256"
            },
            {
              "internalType": "uint256",
              "name": "eventDate",
              "type": "uint256"
            },
            {
              "internalType": "bool",
              "name": "isActive",
              "type": "bool"
            },
            {
              "internalType": "address",
              "name": "organizer",
              "type": "address"
            }
          ],
          "internalType": "struct TicketMarketplace.Event",
          "name": "",
          "type": "tuple"
        }
      ],
      "stateMutability": "view",
      "type": "function"
    },
    {
      "inputs": [
        {
          "internalType": "uint256",
          "name": "tokenId",
          "type": "uint256"
        }
      ],
      "name": "getTicketInfo",
      "outputs": [
        {
          "components": [
            {
              "internalType": "uint256",
              "name": "tokenId",
              "type": "uint256"
            },
            {
              "internalType": "uint256",
              "name": "eventId",
              "type": "uint256"
            },
            {
              "internalType": "address",
              "name": "owner",
              "type": "address"
            },
            {
              "internalType": "bool",
              "name": "isUsed",
              "type": "bool"
            },
            {
              "internalType": "uint256",
              "name": "purchaseDate",
              "type": "uint256"
            },
            {
              "internalType": "uint256",
              "name": "usageDate",
              "type": "uint256"
            }
          ],
          "internalType": "struct TicketMarketplace.Ticket",
          "name": "",
          "type": "tuple"
        }
      ],
      "stateMutability": "view",
      "type": "function"
    },
    {
      "inputs": [
        {
          "internalType": "address",
          "name": "user",
          "type": "address"
        }
      ],
      "name": "getUserTickets",
      "outputs": [
        {
          "internalType": "uint256[]",
          "name": "",
          "type": "uint256[]"
        }
      ],
      "stateMutability": "view",
      "type": "function"
    },
    {
      "inputs": [
        {
          "internalType": "address",
          "name": "owner",
          "type": "address"
        },
        {
          "internalType": "address",
          "name": "operator",
          "type": "address"
        }
      ],
      "name": "isApprovedForAll",
      "outputs": [
        {
          "internalType": "bool",
          "name": "",
          "type": "bool"
        }
      ],
      "stateMutability": "view",
      "type": "function"
    },
    {
      "inputs": [],
      "name": "name",
      "outputs": [
        {
          "internalType": "string",
          "name": "",
          "type": "string"
        }
      ],
      "stateMutability": "view",
      "type": "function"
    },
    {
      "inputs": [],
      "name": "owner",
      "outputs": [
        {
          "internalType": "address",
          "name": "",
          "type": "address"
        }
      ],
      "stateMutability": "view",
      "type": "function"
    },
    {
      "inputs": [
        {
          "internalType": "uint256",
          "name": "tokenId",
          "type": "uint256"
        }
      ],
      "name": "ownerOf",
      "outputs": [
        {
          "internalType": "address",
          "name": "",
          "type": "address"
        }
      ],
      "stateMutability": "view",
      "type": "function"
    },
    {
      "inputs": [],
      "name": "pause",
      "outputs": [],
      "stateMutability": "nonpayable",
      "type": "function"
    },
    {
      "inputs": [],
      "name": "paused",
      "outputs": [
        {
          "internalType": "bool",
          "name": "",
          "type": "bool"
        }
      ],
      "stateMutability": "view",
      "type": "function"
    },
    {
      "inputs": [],
      "name": "platformFee",
      "outputs": [
        {
          "internalType": "uint256",
          "name": "",
          "type": "uint256"
        }
      ],
      "stateMutability": "view",
      "type": "function"
    },
    {
      "inputs": [
        {
          "internalType": "uint256",
          "name": "eventId",
          "type": "uint256"
        },
        {
          "internalType": "string",
          "name": "newTokenURI",
          "type": "string"
        }
      ],
      "name": "purchaseTicket",
      "outputs": [],
      "stateMutability": "payable",
      "type": "function"
    },
    {
      "inputs": [
        {
          "internalType": "uint256",
          "name": "eventId",
          "type": "uint256"
        }
      ],
      "name": "removeVerifier",
      "outputs": [],
      "stateMutability": "nonpayable",
      "type": "function"
    },
    {
      "inputs": [],
      "name": "renounceOwnership",
      "outputs": [],
      "stateMutability": "nonpayable",
      "type": "function"
    },
    {
      "inputs": [
        {
          "internalType": "address",
          "name": "from",
          "type": "address"
        },
        {
          "internalType": "address",
          "name": "to",
          "type": "address"
        },
        {
          "internalType": "uint256",
          "name": "tokenId",
          "type": "uint256"
        }
      ],
      "name": "safeTransferFrom",
      "outputs": [],
      "stateMutability": "nonpayable",
      "type": "function"
    },
    {
      "inputs": [
        {
          "internalType": "address",
          "name": "from",
          "type": "address"
        },
        {
          "internalType": "address",
          "name": "to",
          "type": "address"
        },
        {
          "internalType": "uint256",
          "name": "tokenId",
          "type": "uint256"
        },
        {
          "internalType": "bytes",
          "name": "data",
          "type": "bytes"
        }
      ],
      "name": "safeTransferFrom",
      "outputs": [],
      "stateMutability": "nonpayable",
      "type": "function"
    },
    {
      "inputs": [
        {
          "internalType": "address",
          "name": "operator",
          "type": "address"
        },
        {
          "internalType": "bool",
          "name": "approved",
          "type": "bool"
        }
      ],
      "name": "setApprovalForAll",
      "outputs": [],
      "stateMutability": "nonpayable",
      "type": "function"
    },
    {
      "inputs": [
        {
          "internalType": "uint256",
          "name": "newFee",
          "type": "uint256"
        }
      ],
      "name": "setPlatformFee",
      "outputs": [],
      "stateMutability": "nonpayable",
      "type": "function"
    },
    {
      "inputs": [
        {
          "internalType": "bytes4",
          "name": "interfaceId",
          "type": "bytes4"
        }
      ],
      "name": "supportsInterface",
      "outputs": [
        {
          "internalType": "bool",
          "name": "",
          "type": "bool"
        }
      ],
      "stateMutability": "view",
      "type": "function"
    },
    {
      "inputs": [],
      "name": "symbol",
      "outputs": [
        {
          "internalType": "string",
          "name": "",
          "type": "string"
        }
      ],
      "stateMutability": "view",
      "type": "function"
    },
    {
      "inputs": [
        {
          "internalType": "uint256",
          "name": "",
          "type": "uint256"
        }
      ],
      "name": "tickets",
      "outputs": [
        {
          "internalType": "uint256",
          "name": "tokenId",
          "type": "uint256"
        },
        {
          "internalType": "uint256",
          "name": "eventId",
          "type": "uint256"
        },
        {
          "internalType": "address",
          "name": "owner",
          "type": "address"
        },
        {
          "internalType": "bool",
          "name": "isUsed",
          "type": "bool"
        },
        {
          "internalType": "uint256",
          "name": "purchaseDate",
          "type": "uint256"
        },
        {
          "internalType": "uint256",
          "name": "usageDate",
          "type": "uint256"
        }
      ],
      "stateMutability": "view",
      "type": "function"
    },
    {
      "inputs": [
        {
          "internalType": "uint256",
          "name": "eventId",
          "type": "uint256"
        }
      ],
      "name": "toggleEventStatus",
      "outputs": [],
      "stateMutability": "nonpayable",
      "type": "function"
    },
    {
      "inputs": [
        {
          "internalType": "uint256",
          "name": "",
          "type": "uint256"
        }
      ],
      "name": "tokenExists",
      "outputs": [
        {
          "internalType": "bool",
          "name": "",
          "type": "bool"
        }
      ],
      "stateMutability": "view",
      "type": "function"
    },
    {
      "inputs": [
        {
          "internalType": "uint256",
          "name": "tokenId",
          "type": "uint256"
        }
      ],
      "name": "tokenURI",
      "outputs": [
        {
          "internalType": "string",
          "name": "",
          "type": "string"
        }
      ],
      "stateMutability": "view",
      "type": "function"
    },
    {
      "inputs": [],
      "name": "totalRevenue",
      "outputs": [
        {
          "internalType": "uint256",
          "name": "",
          "type": "uint256"
        }
      ],
      "stateMutability": "view",
      "type": "function"
    },
    {
      "inputs": [
        {
          "internalType": "address",
          "name": "from",
          "type": "address"
        },
        {
          "internalType": "address",
          "name": "to",
          "type": "address"
        },
        {
          "internalType": "uint256",
          "name": "tokenId",
          "type": "uint256"
        }
      ],
      "name": "transferFrom",
      "outputs": [],
      "stateMutability": "nonpayable",
      "type": "function"
    },
    {
      "inputs": [
        {
          "internalType": "address",
          "name": "newOwner",
          "type": "address"
        }
      ],
      "name": "transferOwnership",
      "outputs": [],
      "stateMutability": "nonpayable",
      "type": "function"
    },
    {
      "inputs": [],
      "name": "unpause",
      "outputs": [],
      "stateMutability": "nonpayable",
      "type": "function"
    },
    {
      "inputs": [
        {
          "internalType": "uint256",
          "name": "eventId",
          "type": "uint256"
        },
        {
          "internalType": "string",
          "name": "name",
          "type": "string"
        },
        {
          "internalType": "uint256",
          "name": "price",
          "type": "uint256"
        }
      ],
      "name": "updateEvent",
      "outputs": [],
      "stateMutability": "nonpayable",
      "type": "function"
    },
    {
      "inputs": [
        {
          "internalType": "uint256",
          "name": "tokenId",
          "type": "uint256"
        }
      ],
      "name": "useTicket",
      "outputs": [],
      "stateMutability": "nonpayable",
      "type": "function"
    },
    {
      "inputs": [
        {
          "internalType": "address",
          "name": "",
          "type": "address"
        },
        {
          "internalType": "uint256",
          "name": "",
          "type": "uint256"
        }
      ],
      "name": "userTickets",
      "outputs": [
        {
          "internalType": "uint256",
          "name": "",
          "type": "uint256"
        }
      ],
      "stateMutability": "view",
      "type": "function"
    },
    {
      "inputs": [],
      "name": "withdrawRevenue",
      "outputs": [],
      "stateMutability": "nonpayable",
      "type": "function"
    }
  ],
  "bytecode": "0x608060405260fa60125534801561001557600080fd5b50336040518060400160405280600b81526020017f4576656e745469636b65740000000000000000000000000000000000000000008152506040518060400160405280600481526020017f45544b54000000000000000000000000000000000000000000000000000000008152508160009081610092919061046a565b5080600190816100a2919061046a565b505050600073ffffffffffffffffffffffffffffffffffffffff168173ffffffffffffffffffffffffffffffffffffffff16036101175760006040517f1e4fbdf700000000000000000000000000000000000000000000000000000000815260040161010e919061057d565b60405180910390fd5b6101268161015460201b60201c565b50600160088190555060006009819055506000601081905550600060118190555060fa601281905550610598565b6000600760019054906101000a900473ffffffffffffffffffffffffffffffffffffffff16905081600760016101000a81548173ffffffffffffffffffffffffffffffffffffffff021916908373ffffffffffffffffffffffffffffffffffffffff1602179055508173ffffffffffffffffffffffffffffffffffffffff168173ffffffffffffffffffffffffffffffffffffffff167f8be0079c531659141344cd1fd0a4f28419497f9722a3daafe3b4186f6b6457e060405160405180910390a35050565b600081519050919050565b7f4e487b7100000000000000000000000000000000000000000000000000000000600052604160045260246000fd5b7f4e487b7100000000000000000000000000000000000000000000000000000000600052602260045260246000fd5b6000600282049050600182168061029b57607f821691505b6020821081036102ae576102ad610254565b5b50919050565b60008190508160005260206000209050919050565b60006020601f8301049050919050565b600082821b905092915050565b6000600883026103167fffffffffffffffffffffffffffffffffffffffffffffffffffffffffffffffff826102d9565b61032086836102d9565b95508019841693508086168417925050509392505050565b6000819050919050565b6000819050919050565b600061036761036261035d84610338565b610342565b610338565b9050919050565b6000819050919050565b6103818361034c565b61039561038d8261036e565b8484546102e6565b825550505050565b600090565b6103aa61039d565b6103b5818484610378565b505050565b5b818110156103d9576103ce6000826103a2565b6001810190506103bb565b5050565b601f82111561041e576103ef816102b4565b6103f8846102c9565b81016020851015610407578190505b61041b610413856102c9565b8301826103ba565b50505b505050565b600082821c905092915050565b600061044160001984600802610423565b1980831691505092915050565b600061045a8383610430565b9150826002028217905092915050565b6104738261021a565b67ffffffffffffffff81111561048c5761048b610225565b5b6104968254610283565b6104a18282856103dd565b600060209050601f8311600181146104d457600084156104c2578287015190505b6104cc858261044e565b865550610534565b601f1984166104e2866102b4565b60005b8281101561050a578489015182556001820191506020850194506020810190506104e5565b868310156105275784890151610523601f891682610430565b8355505b6001600288020188555050505b505050505050565b600073ffffffffffffffffffffffffffffffffffffffff82169050919050565b60006105678261053c565b9050919050565b6105778161055c565b82525050565b6000602082019050610592600083018461056e565b92915050565b615981806105a76000396000f3fe6080604052600436106102505760003560e01c80635b9e89d311610139578063b2832096116100b6578063dbe8ba121161007a578063dbe8ba12146108f2578063e13102e91461092f578063e985e9c514610958578063f2fde38b14610995578063f73fd76a146109be578063ff99a063146109da57610250565b8063b2832096146107fb578063b88d4fde14610824578063bf2d9e0b1461084d578063c87b56dd14610878578063cf260baf146108b557610250565b80638456cb59116100fd5780638456cb59146107285780638da5cb5b1461073f57806395d89b411461076a578063a22cb46514610795578063a3c28dfc146107be57610250565b80635b9e89d3146106435780635c975abb1461066c5780636352211e1461069757806370a08231146106d4578063715018a61461071157610250565b806326232a2e116101d257806342842e0e1161019657806342842e0e1461054457806342966c681461056d5780634f573cb21461059657806350b44712146105ad57806352c55db9146105ef57806352dd75711461061a57610250565b806326232a2e14610471578063266064481461049c5780633998a681146104c55780633c2fc56c146104f05780633f4ba83a1461052d57610250565b8063095ea7b311610219578063095ea7b3146103745780630b7914301461039d57806312e8e2c3146103e25780631d645b121461040b57806323b872dd1461044857610250565b8062923f9e1461025557806301ffc9a7146102925780630484a22f146102cf57806306fdde031461030c578063081812fc14610337575b600080fd5b34801561026157600080fd5b5061027c60048036038101906102779190613ee2565b610a17565b6040516102899190613f2a565b60405180910390f35b34801561029e57600080fd5b506102b960048036038101906102b49190613f9d565b610a37565b6040516102c69190613f2a565b60405180910390f35b3480156102db57600080fd5b506102f660048036038101906102f19190614028565b610a49565b6040516103039190614113565b60405180910390f35b34801561031857600080fd5b50610321610ae0565b60405161032e91906141c5565b60405180910390f35b34801561034357600080fd5b5061035e60048036038101906103599190613ee2565b610b72565b60405161036b91906141f6565b60405180910390f35b34801561038057600080fd5b5061039b60048036038101906103969190614211565b610b8e565b005b3480156103a957600080fd5b506103c460048036038101906103bf9190613ee2565b610ba4565b6040516103d999989796959493929190614260565b60405180910390f35b3480156103ee57600080fd5b5061040960048036038101906104049190613ee2565b610d2f565b005b34801561041757600080fd5b50610432600480360381019061042d9190613ee2565b610d86565b60405161043f919061442f565b60405180910390f35b34801561045457600080fd5b5061046f600480360381019061046a9190614451565b610fdb565b005b34801561047d57600080fd5b506104866110dd565b60405161049391906144a4565b60405180910390f35b3480156104a857600080fd5b506104c360048036038101906104be9190613ee2565b6110e3565b005b3480156104d157600080fd5b506104da61140b565b6040516104e791906144a4565b60405180910390f35b3480156104fc57600080fd5b50610517600480360381019061051291906145f4565b611411565b60405161052491906144a4565b60405180910390f35b34801561053957600080fd5b506105426116a5565b005b34801561055057600080fd5b5061056b60048036038101906105669190614451565b6116b7565b005b34801561057957600080fd5b50610594600480360381019061058f9190613ee2565b6116d7565b005b3480156105a257600080fd5b506105ab6116ee565b005b3480156105b957600080fd5b506105d460048036038101906105cf9190613ee2565b6117bc565b6040516105e6969594939291906146a7565b60405180910390f35b3480156105fb57600080fd5b50610604611825565b60405161061191906144a4565b60405180910390f35b34801561062657600080fd5b50610641600480360381019061063c9190614708565b61182b565b005b34801561064f57600080fd5b5061066a60048036038101906106659190613ee2565b611943565b005b34801561067857600080fd5b50610681611a93565b60405161068e9190613f2a565b60405180910390f35b3480156106a357600080fd5b506106be60048036038101906106b99190613ee2565b611aaa565b6040516106cb91906141f6565b60405180910390f35b3480156106e057600080fd5b506106fb60048036038101906106f69190614028565b611abc565b60405161070891906144a4565b60405180910390f35b34801561071d57600080fd5b50610726611b76565b005b34801561073457600080fd5b5061073d611b8a565b005b34801561074b57600080fd5b50610754611b9c565b60405161076191906141f6565b60405180910390f35b34801561077657600080fd5b5061077f611bc6565b60405161078c91906141c5565b60405180910390f35b3480156107a157600080fd5b506107bc60048036038101906107b791906147a3565b611c58565b005b3480156107ca57600080fd5b506107e560048036038101906107e09190613ee2565b611c6e565b6040516107f29190613f2a565b60405180910390f35b34801561080757600080fd5b50610822600480360381019061081d91906147e3565b611c8e565b005b34801561083057600080fd5b5061084b600480360381019061084691906148c4565b611e31565b005b34801561085957600080fd5b50610862611e56565b60405161086f91906144a4565b60405180910390f35b34801561088457600080fd5b5061089f600480360381019061089a9190613ee2565b611e5c565b6040516108ac91906141c5565b60405180910390f35b3480156108c157600080fd5b506108dc60048036038101906108d79190614211565b611e6e565b6040516108e991906144a4565b60405180910390f35b3480156108fe57600080fd5b5061091960048036038101906109149190613ee2565b611e9f565b60405161092691906141f6565b60405180910390f35b34801561093b57600080fd5b5061095660048036038101906109519190613ee2565b611ed2565b005b34801561096457600080fd5b5061097f600480360381019061097a9190614947565b611fcd565b60405161098c9190613f2a565b60405180910390f35b3480156109a157600080fd5b506109bc60048036038101906109b79190614028565b612061565b005b6109d860048036038101906109d39190614987565b6120e7565b005b3480156109e657600080fd5b50610a0160048036038101906109fc9190613ee2565b61269a565b604051610a0e9190614a5e565b60405180910390f35b600f6020528060005260406000206000915054906101000a900460ff1681565b6000610a42826127c0565b9050919050565b6060600d60008373ffffffffffffffffffffffffffffffffffffffff1673ffffffffffffffffffffffffffffffffffffffff168152602001908152602001600020805480602002602001604051908101604052809291908181526020018280548015610ad457602002820191906000526020600020905b815481526020019060010190808311610ac0575b50505050509050919050565b606060008054610aef90614aa8565b80601f0160208091040260200160405190810160405280929190818152602001828054610b1b90614aa8565b8015610b685780601f10610b3d57610100808354040283529160200191610b68565b820191906000526020600020905b815481529060010190602001808311610b4b57829003601f168201915b5050505050905090565b6000610b7d82612821565b50610b87826128a9565b9050919050565b610ba08282610b9b6128e6565b6128ee565b5050565b600a602052806000526040600020600091509050806000015490806001018054610bcd90614aa8565b80601f0160208091040260200160405190810160405280929190818152602001828054610bf990614aa8565b8015610c465780601f10610c1b57610100808354040283529160200191610c46565b820191906000526020600020905b815481529060010190602001808311610c2957829003601f168201915b505050505090806002018054610c5b90614aa8565b80601f0160208091040260200160405190810160405280929190818152602001828054610c8790614aa8565b8015610cd45780601f10610ca957610100808354040283529160200191610cd4565b820191906000526020600020905b815481529060010190602001808311610cb757829003601f168201915b5050505050908060030154908060040154908060050154908060060154908060070160009054906101000a900460ff16908060070160019054906101000a900473ffffffffffffffffffffffffffffffffffffffff16905089565b610d37612900565b6103e8811115610d7c576040517f08c379a0000000000000000000000000000000000000000000000000000000008152600401610d7390614b25565b60405180910390fd5b8060128190555050565b610d8e613de6565b600c600083815260200190815260200160002060009054906101000a900460ff16610dee576040517f08c379a0000000000000000000000000000000000000000000000000000000008152600401610de590614b91565b60405180910390fd5b600a60008381526020019081526020016000206040518061012001604052908160008201548152602001600182018054610e2790614aa8565b80601f0160208091040260200160405190810160405280929190818152602001828054610e5390614aa8565b8015610ea05780601f10610e7557610100808354040283529160200191610ea0565b820191906000526020600020905b815481529060010190602001808311610e8357829003601f168201915b50505050508152602001600282018054610eb990614aa8565b80601f0160208091040260200160405190810160405280929190818152602001828054610ee590614aa8565b8015610f325780601f10610f0757610100808354040283529160200191610f32565b820191906000526020600020905b815481529060010190602001808311610f1557829003601f168201915b50505050508152602001600382015481526020016004820154815260200160058201548152602001600682015481526020016007820160009054906101000a900460ff161515151581526020016007820160019054906101000a900473ffffffffffffffffffffffffffffffffffffffff1673ffffffffffffffffffffffffffffffffffffffff1673ffffffffffffffffffffffffffffffffffffffff16815250509050919050565b600073ffffffffffffffffffffffffffffffffffffffff168273ffffffffffffffffffffffffffffffffffffffff160361104d5760006040517f64a0ae9200000000000000000000000000000000000000000000000000000000815260040161104491906141f6565b60405180910390fd5b6000611061838361105c6128e6565b612987565b90508373ffffffffffffffffffffffffffffffffffffffff168173ffffffffffffffffffffffffffffffffffffffff16146110d7578382826040517f64283d7b0000000000000000000000000000000000000000000000000000000081526004016110ce93929190614bb1565b60405180910390fd5b50505050565b60125481565b600b6000828152602001908152602001600020600101543373ffffffffffffffffffffffffffffffffffffffff16600e600083815260200190815260200160002060009054906101000a900473ffffffffffffffffffffffffffffffffffffffff1673ffffffffffffffffffffffffffffffffffffffff1614806111c857503373ffffffffffffffffffffffffffffffffffffffff16600a600083815260200190815260200160002060070160019054906101000a900473ffffffffffffffffffffffffffffffffffffffff1673ffffffffffffffffffffffffffffffffffffffff16145b8061120557503373ffffffffffffffffffffffffffffffffffffffff166111ed611b9c565b73ffffffffffffffffffffffffffffffffffffffff16145b611244576040517f08c379a000000000000000000000000000000000000000000000000000000000815260040161123b90614c34565b60405180910390fd5b600f600083815260200190815260200160002060009054906101000a900460ff166112a4576040517f08c379a000000000000000000000000000000000000000000000000000000000815260040161129b90614ca0565b60405180910390fd5b6000600b600084815260200190815260200160002090508060020160149054906101000a900460ff161561130d576040517f08c379a000000000000000000000000000000000000000000000000000000000815260040161130490614d0c565b60405180910390fd5b6000600a6000836001015481526020019081526020016000209050610e10816006015461133a9190614d5b565b421015801561135a575061546081600601546113569190614d8f565b4211155b611399576040517f08c379a000000000000000000000000000000000000000000000000000000000815260040161139090614e0f565b60405180910390fd5b60018260020160146101000a81548160ff0219169083151502179055504282600401819055508160010154847fb35ebdfb9515b145e406c5c5a0846ec436db0b9560927af3af7a754d90c4f6ff336040516113f491906141f6565b60405180910390a36114058461299d565b50505050565b6103e881565b600080865111611456576040517f08c379a000000000000000000000000000000000000000000000000000000000815260040161144d90614e7b565b60405180910390fd5b60008311611499576040517f08c379a000000000000000000000000000000000000000000000000000000000815260040161149090614f0d565b60405180910390fd5b4282116114db576040517f08c379a00000000000000000000000000000000000000000000000000000000081526004016114d290614f79565b60405180910390fd5b601060008154809291906114ee90614f99565b919050555060006010549050604051806101200160405280828152602001888152602001878152602001868152602001858152602001600081526020018481526020016001151581526020013373ffffffffffffffffffffffffffffffffffffffff16815250600a6000838152602001908152602001600020600082015181600001556020820151816001019081611586919061518d565b50604082015181600201908161159c919061518d565b50606082015181600301556080820151816004015560a0820151816005015560c0820151816006015560e08201518160070160006101000a81548160ff0219169083151502179055506101008201518160070160016101000a81548173ffffffffffffffffffffffffffffffffffffffff021916908373ffffffffffffffffffffffffffffffffffffffff1602179055509050506001600c600083815260200190815260200160002060006101000a81548160ff021916908315150217905550807f42e6867e52299b45991308391cccb9ee79466d194059ff10fc15c2d88f0ea0618887876040516116909392919061525f565b60405180910390a28091505095945050505050565b6116ad612900565b6116b5612b8d565b565b6116d283838360405180602001604052806000815250611e31565b505050565b6116ea6000826116e56128e6565b612987565b5050565b6116f6612900565b600060115490506000601181905550600061170f611b9c565b73ffffffffffffffffffffffffffffffffffffffff1682604051611732906152ce565b60006040518083038185875af1925050503d806000811461176f576040519150601f19603f3d011682016040523d82523d6000602084013e611774565b606091505b50509050806117b8576040517f08c379a00000000000000000000000000000000000000000000000000000000081526004016117af9061532f565b60405180910390fd5b5050565b600b6020528060005260406000206000915090508060000154908060010154908060020160009054906101000a900473ffffffffffffffffffffffffffffffffffffffff16908060020160149054906101000a900460ff16908060030154908060040154905086565b60105481565b823373ffffffffffffffffffffffffffffffffffffffff16600a600083815260200190815260200160002060070160019054906101000a900473ffffffffffffffffffffffffffffffffffffffff1673ffffffffffffffffffffffffffffffffffffffff16146118d0576040517f08c379a00000000000000000000000000000000000000000000000000000000081526004016118c79061539b565b60405180910390fd5b6000600a60008681526020019081526020016000209050838160010190816118f8919061518d565b50828160030181905550847f52e1cf95a71a4bf626ead510f76e201292e9ba26897de33655903ab896c5ba2b85856040516119349291906153bb565b60405180910390a25050505050565b803373ffffffffffffffffffffffffffffffffffffffff16600a600083815260200190815260200160002060070160019054906101000a900473ffffffffffffffffffffffffffffffffffffffff1673ffffffffffffffffffffffffffffffffffffffff16146119e8576040517f08c379a00000000000000000000000000000000000000000000000000000000081526004016119df9061539b565b60405180910390fd5b6000600e600084815260200190815260200160002060009054906101000a900473ffffffffffffffffffffffffffffffffffffffff169050600e600084815260200190815260200160002060006101000a81549073ffffffffffffffffffffffffffffffffffffffff0219169055827f284458f67fc2a6b99f25a542951ece6212056176f4b78bb37c2d64af8528b92f82604051611a8691906141f6565b60405180910390a2505050565b6000600760009054906101000a900460ff16905090565b6000611ab582612821565b9050919050565b60008073ffffffffffffffffffffffffffffffffffffffff168273ffffffffffffffffffffffffffffffffffffffff1603611b2f5760006040517f89c62b64000000000000000000000000000000000000000000000000000000008152600401611b2691906141f6565b60405180910390fd5b600360008373ffffffffffffffffffffffffffffffffffffffff1673ffffffffffffffffffffffffffffffffffffffff168152602001908152602001600020549050919050565b611b7e612900565b611b886000612bf0565b565b611b92612900565b611b9a612cb6565b565b6000600760019054906101000a900473ffffffffffffffffffffffffffffffffffffffff16905090565b606060018054611bd590614aa8565b80601f0160208091040260200160405190810160405280929190818152602001828054611c0190614aa8565b8015611c4e5780601f10611c2357610100808354040283529160200191611c4e565b820191906000526020600020905b815481529060010190602001808311611c3157829003601f168201915b5050505050905090565b611c6a611c636128e6565b8383612d19565b5050565b600c6020528060005260406000206000915054906101000a900460ff1681565b813373ffffffffffffffffffffffffffffffffffffffff16600a600083815260200190815260200160002060070160019054906101000a900473ffffffffffffffffffffffffffffffffffffffff1673ffffffffffffffffffffffffffffffffffffffff1614611d33576040517f08c379a0000000000000000000000000000000000000000000000000000000008152600401611d2a9061539b565b60405180910390fd5b600073ffffffffffffffffffffffffffffffffffffffff168273ffffffffffffffffffffffffffffffffffffffff1603611da2576040517f08c379a0000000000000000000000000000000000000000000000000000000008152600401611d9990615437565b60405180910390fd5b81600e600085815260200190815260200160002060006101000a81548173ffffffffffffffffffffffffffffffffffffffff021916908373ffffffffffffffffffffffffffffffffffffffff160217905550827fed057a91bb14fbc78b7ce72ff9f79d4a61c422384e5434c8fa3e8fc8033d895683604051611e2491906141f6565b60405180910390a2505050565b611e3c848484610fdb565b611e50611e476128e6565b85858585612e88565b50505050565b60115481565b6060611e6782613039565b9050919050565b600d6020528160005260406000208181548110611e8a57600080fd5b90600052602060002001600091509150505481565b600e6020528060005260406000206000915054906101000a900473ffffffffffffffffffffffffffffffffffffffff1681565b803373ffffffffffffffffffffffffffffffffffffffff16600a600083815260200190815260200160002060070160019054906101000a900473ffffffffffffffffffffffffffffffffffffffff1673ffffffffffffffffffffffffffffffffffffffff1614611f77576040517f08c379a0000000000000000000000000000000000000000000000000000000008152600401611f6e9061539b565b60405180910390fd5b600a600083815260200190815260200160002060070160009054906101000a900460ff1615600a600084815260200190815260200160002060070160006101000a81548160ff0219169083151502179055505050565b6000600560008473ffffffffffffffffffffffffffffffffffffffff1673ffffffffffffffffffffffffffffffffffffffff16815260200190815260200160002060008373ffffffffffffffffffffffffffffffffffffffff1673ffffffffffffffffffffffffffffffffffffffff16815260200190815260200160002060009054906101000a900460ff16905092915050565b612069612900565b600073ffffffffffffffffffffffffffffffffffffffff168173ffffffffffffffffffffffffffffffffffffffff16036120db5760006040517f1e4fbdf70000000000000000000000000000000000000000000000000000000081526004016120d291906141f6565b60405180910390fd5b6120e481612bf0565b50565b6120ef61314c565b6120f7613192565b81600c600082815260200190815260200160002060009054906101000a900460ff16612158576040517f08c379a000000000000000000000000000000000000000000000000000000000815260040161214f90614b91565b60405180910390fd5b6000600a600085815260200190815260200160002090508060070160009054906101000a900460ff166121c0576040517f08c379a00000000000000000000000000000000000000000000000000000000081526004016121b7906154a3565b60405180910390fd5b806004015481600501541061220a576040517f08c379a00000000000000000000000000000000000000000000000000000000081526004016122019061550f565b60405180910390fd5b8060030154341015612251576040517f08c379a00000000000000000000000000000000000000000000000000000000081526004016122489061557b565b60405180910390fd5b80600601544210612297576040517f08c379a000000000000000000000000000000000000000000000000000000000815260040161228e906155e7565b60405180910390fd5b600960008154809291906122aa90614f99565b9190505550600060095490506122c033826131d3565b6122ca81856131f1565b6001600f600083815260200190815260200160002060006101000a81548160ff02191690831515021790555081600501600081548092919061230b90614f99565b91905055506040518060c001604052808281526020018681526020013373ffffffffffffffffffffffffffffffffffffffff1681526020016000151581526020014281526020016000815250600b6000838152602001908152602001600020600082015181600001556020820151816001015560408201518160020160006101000a81548173ffffffffffffffffffffffffffffffffffffffff021916908373ffffffffffffffffffffffffffffffffffffffff16021790555060608201518160020160146101000a81548160ff0219169083151502179055506080820151816003015560a08201518160040155905050600d60003373ffffffffffffffffffffffffffffffffffffffff1673ffffffffffffffffffffffffffffffffffffffff1681526020019081526020016000208190806001815401808255809150506001900390600052602060002001600090919091909150556000612710601254346124759190615607565b61247f9190615678565b90506000813461248f9190614d5b565b905060008460070160019054906101000a900473ffffffffffffffffffffffffffffffffffffffff1673ffffffffffffffffffffffffffffffffffffffff16826040516124db906152ce565b60006040518083038185875af1925050503d8060008114612518576040519150601f19603f3d011682016040523d82523d6000602084013e61251d565b606091505b5050905080612561576040517f08c379a0000000000000000000000000000000000000000000000000000000008152600401612558906156f5565b60405180910390fd5b82601160008282546125739190614d8f565b9250508190555084600301543411156126495760008560030154346125989190614d5b565b905060003373ffffffffffffffffffffffffffffffffffffffff16826040516125c0906152ce565b60006040518083038185875af1925050503d80600081146125fd576040519150601f19603f3d011682016040523d82523d6000602084013e612602565b606091505b5050905080612646576040517f08c379a000000000000000000000000000000000000000000000000000000000815260040161263d90615761565b60405180910390fd5b50505b87847fc3b7539e996dc1d1252af1e3c72474162b7a9c7cc7411ca8905732eaf6fff328338860030154604051612680929190615781565b60405180910390a350505050505061269661324d565b5050565b6126a2613e4a565b600f600083815260200190815260200160002060009054906101000a900460ff16612702576040517f08c379a00000000000000000000000000000000000000000000000000000000081526004016126f990614ca0565b60405180910390fd5b600b60008381526020019081526020016000206040518060c001604052908160008201548152602001600182015481526020016002820160009054906101000a900473ffffffffffffffffffffffffffffffffffffffff1673ffffffffffffffffffffffffffffffffffffffff1673ffffffffffffffffffffffffffffffffffffffff1681526020016002820160149054906101000a900460ff16151515158152602001600382015481526020016004820154815250509050919050565b6000634906490660e01b7bffffffffffffffffffffffffffffffffffffffffffffffffffffffff1916827bffffffffffffffffffffffffffffffffffffffffffffffffffffffff1916148061281a575061281982613257565b5b9050919050565b60008061282d83613339565b9050600073ffffffffffffffffffffffffffffffffffffffff168173ffffffffffffffffffffffffffffffffffffffff16036128a057826040517f7e27328900000000000000000000000000000000000000000000000000000000815260040161289791906144a4565b60405180910390fd5b80915050919050565b60006004600083815260200190815260200160002060009054906101000a900473ffffffffffffffffffffffffffffffffffffffff169050919050565b600033905090565b6128fb8383836001613376565b505050565b6129086128e6565b73ffffffffffffffffffffffffffffffffffffffff16612926611b9c565b73ffffffffffffffffffffffffffffffffffffffff1614612985576129496128e6565b6040517f118cdaa700000000000000000000000000000000000000000000000000000000815260040161297c91906141f6565b60405180910390fd5b565b600061299484848461353b565b90509392505050565b600f600082815260200190815260200160002060009054906101000a900460ff166129fd576040517f08c379a00000000000000000000000000000000000000000000000000000000081526004016129f490614ca0565b60405180910390fd5b6000600b600083815260200190815260200160002090506000612a1f83611aaa565b90506000600d60008373ffffffffffffffffffffffffffffffffffffffff1673ffffffffffffffffffffffffffffffffffffffff168152602001908152602001600020905060005b8180549050811015612b1f5784828281548110612a8757612a866157aa565b5b906000526020600020015403612b12578160018380549050612aa99190614d5b565b81548110612aba57612ab96157aa565b5b9060005260206000200154828281548110612ad857612ad76157aa565b5b906000526020600020018190555081805480612af757612af66157d9565b5b60019003818190600052602060002001600090559055612b1f565b8080600101915050612a67565b506000600f600086815260200190815260200160002060006101000a81548160ff021916908315150217905550612b5584613559565b8260010154847fd49cbb19e134836fb8334c1c39901390e9f1634db4705e3f7006fcb21d5d4fe560405160405180910390a350505050565b612b956135df565b6000600760006101000a81548160ff0219169083151502179055507f5db9ee0a495bf2e6ff9c91a7834c1ba4fdd244a5e8aa4e537bd38aeae4b073aa612bd96128e6565b604051612be691906141f6565b60405180910390a1565b6000600760019054906101000a900473ffffffffffffffffffffffffffffffffffffffff16905081600760016101000a81548173ffffffffffffffffffffffffffffffffffffffff021916908373ffffffffffffffffffffffffffffffffffffffff1602179055508173ffffffffffffffffffffffffffffffffffffffff168173ffffffffffffffffffffffffffffffffffffffff167f8be0079c531659141344cd1fd0a4f28419497f9722a3daafe3b4186f6b6457e060405160405180910390a35050565b612cbe613192565b6001600760006101000a81548160ff0219169083151502179055507f62e78cea01bee320cd4e420270b5ea74000d11b0c9f74754ebdbfc544b05a258612d026128e6565b604051612d0f91906141f6565b60405180910390a1565b600073ffffffffffffffffffffffffffffffffffffffff168273ffffffffffffffffffffffffffffffffffffffff1603612d8a57816040517f5b08ba18000000000000000000000000000000000000000000000000000000008152600401612d8191906141f6565b60405180910390fd5b80600560008573ffffffffffffffffffffffffffffffffffffffff1673ffffffffffffffffffffffffffffffffffffffff16815260200190815260200160002060008473ffffffffffffffffffffffffffffffffffffffff1673ffffffffffffffffffffffffffffffffffffffff16815260200190815260200160002060006101000a81548160ff0219169083151502179055508173ffffffffffffffffffffffffffffffffffffffff168373ffffffffffffffffffffffffffffffffffffffff167f17307eab39ab6107e8899845ad3d59bd9653f200f220920489ca2b5937696c3183604051612e7b9190613f2a565b60405180910390a3505050565b60008373ffffffffffffffffffffffffffffffffffffffff163b1115613032578273ffffffffffffffffffffffffffffffffffffffff1663150b7a02868685856040518563ffffffff1660e01b8152600401612ee7949392919061585d565b6020604051808303816000875af1925050508015612f2357506040513d601f19601f82011682018060405250810190612f2091906158be565b60015b612fa7573d8060008114612f53576040519150601f19603f3d011682016040523d82523d6000602084013e612f58565b606091505b506000815103612f9f57836040517f64a0ae92000000000000000000000000000000000000000000000000000000008152600401612f9691906141f6565b60405180910390fd5b805181602001fd5b63150b7a0260e01b7bffffffffffffffffffffffffffffffffffffffffffffffffffffffff1916817bffffffffffffffffffffffffffffffffffffffffffffffffffffffff19161461303057836040517f64a0ae9200000000000000000000000000000000000000000000000000000000815260040161302791906141f6565b60405180910390fd5b505b5050505050565b606061304482612821565b50600060066000848152602001908152602001600020805461306590614aa8565b80601f016020809104026020016040519081016040528092919081815260200182805461309190614aa8565b80156130de5780601f106130b3576101008083540402835291602001916130de565b820191906000526020600020905b8154815290600101906020018083116130c157829003601f168201915b5050505050905060006130ef61361f565b90506000815103613104578192505050613147565b600082511115613139578082604051602001613121929190615927565b60405160208183030381529060405292505050613147565b61314284613636565b925050505b919050565b600260085403613188576040517f3ee5aeb500000000000000000000000000000000000000000000000000000000815260040160405180910390fd5b6002600881905550565b61319a611a93565b156131d1576040517fd93c066500000000000000000000000000000000000000000000000000000000815260040160405180910390fd5b565b6131ed82826040518060200160405280600081525061369f565b5050565b80600660008481526020019081526020016000209081613211919061518d565b507ff8e1a15aba9398e019f0b49df1a4fde98ee17ae345cb5f6b5e2c27f5033e8ce78260405161324191906144a4565b60405180910390a15050565b6001600881905550565b60007f80ac58cd000000000000000000000000000000000000000000000000000000007bffffffffffffffffffffffffffffffffffffffffffffffffffffffff1916827bffffffffffffffffffffffffffffffffffffffffffffffffffffffff1916148061332257507f5b5e139f000000000000000000000000000000000000000000000000000000007bffffffffffffffffffffffffffffffffffffffffffffffffffffffff1916827bffffffffffffffffffffffffffffffffffffffffffffffffffffffff1916145b806133325750613331826136c3565b5b9050919050565b60006002600083815260200190815260200160002060009054906101000a900473ffffffffffffffffffffffffffffffffffffffff169050919050565b80806133af5750600073ffffffffffffffffffffffffffffffffffffffff168273ffffffffffffffffffffffffffffffffffffffff1614155b156134e35760006133bf84612821565b9050600073ffffffffffffffffffffffffffffffffffffffff168373ffffffffffffffffffffffffffffffffffffffff161415801561342a57508273ffffffffffffffffffffffffffffffffffffffff168173ffffffffffffffffffffffffffffffffffffffff1614155b801561343d575061343b8184611fcd565b155b1561347f57826040517fa9fbf51f00000000000000000000000000000000000000000000000000000000815260040161347691906141f6565b60405180910390fd5b81156134e157838573ffffffffffffffffffffffffffffffffffffffff168273ffffffffffffffffffffffffffffffffffffffff167f8c5be1e5ebec7d5bd14f71427d1e84f3dd0314c0f7b2291e5b200ac8c7c3b92560405160405180910390a45b505b836004600085815260200190815260200160002060006101000a81548173ffffffffffffffffffffffffffffffffffffffff021916908373ffffffffffffffffffffffffffffffffffffffff16021790555050505050565b6000613545613192565b61355084848461372d565b90509392505050565b60006135686000836000612987565b9050600073ffffffffffffffffffffffffffffffffffffffff168173ffffffffffffffffffffffffffffffffffffffff16036135db57816040517f7e2732890000000000000000000000000000000000000000000000000000000081526004016135d291906144a4565b60405180910390fd5b5050565b6135e7611a93565b61361d576040517f8dfc202b00000000000000000000000000000000000000000000000000000000815260040160405180910390fd5b565b606060405180602001604052806000815250905090565b606061364182612821565b50600061364c61361f565b9050600081511161366c5760405180602001604052806000815250613697565b8061367684613947565b604051602001613687929190615927565b6040516020818303038152906040525b915050919050565b6136a98383613a15565b6136be6136b46128e6565b6000858585612e88565b505050565b60007f01ffc9a7000000000000000000000000000000000000000000000000000000007bffffffffffffffffffffffffffffffffffffffffffffffffffffffff1916827bffffffffffffffffffffffffffffffffffffffffffffffffffffffff1916149050919050565b60008061373984613339565b9050600073ffffffffffffffffffffffffffffffffffffffff168373ffffffffffffffffffffffffffffffffffffffff161461377b5761377a818486613b0e565b5b600073ffffffffffffffffffffffffffffffffffffffff168173ffffffffffffffffffffffffffffffffffffffff161461380c576137bd600085600080613376565b6001600360008373ffffffffffffffffffffffffffffffffffffffff1673ffffffffffffffffffffffffffffffffffffffff168152602001908152602001600020600082825403925050819055505b600073ffffffffffffffffffffffffffffffffffffffff168573ffffffffffffffffffffffffffffffffffffffff161461388f576001600360008773ffffffffffffffffffffffffffffffffffffffff1673ffffffffffffffffffffffffffffffffffffffff168152602001908152602001600020600082825401925050819055505b846002600086815260200190815260200160002060006101000a81548173ffffffffffffffffffffffffffffffffffffffff021916908373ffffffffffffffffffffffffffffffffffffffff160217905550838573ffffffffffffffffffffffffffffffffffffffff168273ffffffffffffffffffffffffffffffffffffffff167fddf252ad1be2c89b69c2b068fc378daa952ba7f163c4a11628f55a4df523b3ef60405160405180910390a4809150509392505050565b60606000600161395684613bd2565b01905060008167ffffffffffffffff811115613975576139746144c9565b5b6040519080825280601f01601f1916602001820160405280156139a75781602001600182028036833780820191505090505b509050600082602001820190505b600115613a0a578080600190039150507f3031323334353637383961626364656600000000000000000000000000000000600a86061a8153600a85816139fe576139fd615649565b5b049450600085036139b5575b819350505050919050565b600073ffffffffffffffffffffffffffffffffffffffff168273ffffffffffffffffffffffffffffffffffffffff1603613a875760006040517f64a0ae92000000000000000000000000000000000000000000000000000000008152600401613a7e91906141f6565b60405180910390fd5b6000613a9583836000612987565b9050600073ffffffffffffffffffffffffffffffffffffffff168173ffffffffffffffffffffffffffffffffffffffff1614613b095760006040517f73c6ac6e000000000000000000000000000000000000000000000000000000008152600401613b0091906141f6565b60405180910390fd5b505050565b613b19838383613d25565b613bcd57600073ffffffffffffffffffffffffffffffffffffffff168373ffffffffffffffffffffffffffffffffffffffff1603613b8e57806040517f7e273289000000000000000000000000000000000000000000000000000000008152600401613b8591906144a4565b60405180910390fd5b81816040517f177e802f000000000000000000000000000000000000000000000000000000008152600401613bc4929190615781565b60405180910390fd5b505050565b600080600090507a184f03e93ff9f4daa797ed6e38ed64bf6a1f0100000000000000008310613c30577a184f03e93ff9f4daa797ed6e38ed64bf6a1f0100000000000000008381613c2657613c25615649565b5b0492506040810190505b6d04ee2d6d415b85acef81000000008310613c6d576d04ee2d6d415b85acef81000000008381613c6357613c62615649565b5b0492506020810190505b662386f26fc100008310613c9c57662386f26fc100008381613c9257613c91615649565b5b0492506010810190505b6305f5e1008310613cc5576305f5e1008381613cbb57613cba615649565b5b0492506008810190505b6127108310613cea576127108381613ce057613cdf615649565b5b0492506004810190505b60648310613d0d5760648381613d0357613d02615649565b5b0492506002810190505b600a8310613d1c576001810190505b80915050919050565b60008073ffffffffffffffffffffffffffffffffffffffff168373ffffffffffffffffffffffffffffffffffffffff1614158015613ddd57508273ffffffffffffffffffffffffffffffffffffffff168473ffffffffffffffffffffffffffffffffffffffff161480613d9e5750613d9d8484611fcd565b5b80613ddc57508273ffffffffffffffffffffffffffffffffffffffff16613dc4836128a9565b73ffffffffffffffffffffffffffffffffffffffff16145b5b90509392505050565b60405180610120016040528060008152602001606081526020016060815260200160008152602001600081526020016000815260200160008152602001600015158152602001600073ffffffffffffffffffffffffffffffffffffffff1681525090565b6040518060c001604052806000815260200160008152602001600073ffffffffffffffffffffffffffffffffffffffff16815260200160001515815260200160008152602001600081525090565b6000604051905090565b600080fd5b600080fd5b6000819050919050565b613ebf81613eac565b8114613eca57600080fd5b50565b600081359050613edc81613eb6565b92915050565b600060208284031215613ef857613ef7613ea2565b5b6000613f0684828501613ecd565b91505092915050565b60008115159050919050565b613f2481613f0f565b82525050565b6000602082019050613f3f6000830184613f1b565b92915050565b60007fffffffff0000000000000000000000000000000000000000000000000000000082169050919050565b613f7a81613f45565b8114613f8557600080fd5b50565b600081359050613f9781613f71565b92915050565b600060208284031215613fb357613fb2613ea2565b5b6000613fc184828501613f88565b91505092915050565b600073ffffffffffffffffffffffffffffffffffffffff82169050919050565b6000613ff582613fca565b9050919050565b61400581613fea565b811461401057600080fd5b50565b60008135905061402281613ffc565b92915050565b60006020828403121561403e5761403d613ea2565b5b600061404c84828501614013565b91505092915050565b600081519050919050565b600082825260208201905092915050565b6000819050602082019050919050565b61408a81613eac565b82525050565b600061409c8383614081565b60208301905092915050565b6000602082019050919050565b60006140c082614055565b6140ca8185614060565b93506140d583614071565b8060005b838110156141065781516140ed8882614090565b97506140f8836140a8565b9250506001810190506140d9565b5085935050505092915050565b6000602082019050818103600083015261412d81846140b5565b905092915050565b600081519050919050565b600082825260208201905092915050565b60005b8381101561416f578082015181840152602081019050614154565b60008484015250505050565b6000601f19601f8301169050919050565b600061419782614135565b6141a18185614140565b93506141b1818560208601614151565b6141ba8161417b565b840191505092915050565b600060208201905081810360008301526141df818461418c565b905092915050565b6141f081613fea565b82525050565b600060208201905061420b60008301846141e7565b92915050565b6000806040838503121561422857614227613ea2565b5b600061423685828601614013565b925050602061424785828601613ecd565b9150509250929050565b61425a81613eac565b82525050565b600061012082019050614276600083018c614251565b8181036020830152614288818b61418c565b9050818103604083015261429c818a61418c565b90506142ab6060830189614251565b6142b86080830188614251565b6142c560a0830187614251565b6142d260c0830186614251565b6142df60e0830185613f1b565b6142ed6101008301846141e7565b9a9950505050505050505050565b600082825260208201905092915050565b600061431782614135565b61432181856142fb565b9350614331818560208601614151565b61433a8161417b565b840191505092915050565b61434e81613f0f565b82525050565b61435d81613fea565b82525050565b60006101208301600083015161437c6000860182614081565b5060208301518482036020860152614394828261430c565b915050604083015184820360408601526143ae828261430c565b91505060608301516143c36060860182614081565b5060808301516143d66080860182614081565b5060a08301516143e960a0860182614081565b5060c08301516143fc60c0860182614081565b5060e083015161440f60e0860182614345565b50610100830151614424610100860182614354565b508091505092915050565b600060208201905081810360008301526144498184614363565b905092915050565b60008060006060848603121561446a57614469613ea2565b5b600061447886828701614013565b935050602061448986828701614013565b925050604061449a86828701613ecd565b9150509250925092565b60006020820190506144b96000830184614251565b92915050565b600080fd5b600080fd5b7f4e487b7100000000000000000000000000000000000000000000000000000000600052604160045260246000fd5b6145018261417b565b810181811067ffffffffffffffff821117156145205761451f6144c9565b5b80604052505050565b6000614533613e98565b905061453f82826144f8565b919050565b600067ffffffffffffffff82111561455f5761455e6144c9565b5b6145688261417b565b9050602081019050919050565b82818337600083830152505050565b600061459761459284614544565b614529565b9050828152602081018484840111156145b3576145b26144c4565b5b6145be848285614575565b509392505050565b600082601f8301126145db576145da6144bf565b5b81356145eb848260208601614584565b91505092915050565b600080600080600060a086880312156146105761460f613ea2565b5b600086013567ffffffffffffffff81111561462e5761462d613ea7565b5b61463a888289016145c6565b955050602086013567ffffffffffffffff81111561465b5761465a613ea7565b5b614667888289016145c6565b945050604061467888828901613ecd565b935050606061468988828901613ecd565b925050608061469a88828901613ecd565b9150509295509295909350565b600060c0820190506146bc6000830189614251565b6146c96020830188614251565b6146d660408301876141e7565b6146e36060830186613f1b565b6146f06080830185614251565b6146fd60a0830184614251565b979650505050505050565b60008060006060848603121561472157614720613ea2565b5b600061472f86828701613ecd565b935050602084013567ffffffffffffffff8111156147505761474f613ea7565b5b61475c868287016145c6565b925050604061476d86828701613ecd565b9150509250925092565b61478081613f0f565b811461478b57600080fd5b50565b60008135905061479d81614777565b92915050565b600080604083850312156147ba576147b9613ea2565b5b60006147c885828601614013565b92505060206147d98582860161478e565b9150509250929050565b600080604083850312156147fa576147f9613ea2565b5b600061480885828601613ecd565b925050602061481985828601614013565b9150509250929050565b600067ffffffffffffffff82111561483e5761483d6144c9565b5b6148478261417b565b9050602081019050919050565b600061486761486284614823565b614529565b905082815260208101848484011115614883576148826144c4565b5b61488e848285614575565b509392505050565b600082601f8301126148ab576148aa6144bf565b5b81356148bb848260208601614854565b91505092915050565b600080600080608085870312156148de576148dd613ea2565b5b60006148ec87828801614013565b94505060206148fd87828801614013565b935050604061490e87828801613ecd565b925050606085013567ffffffffffffffff81111561492f5761492e613ea7565b5b61493b87828801614896565b91505092959194509250565b6000806040838503121561495e5761495d613ea2565b5b600061496c85828601614013565b925050602061497d85828601614013565b9150509250929050565b6000806040838503121561499e5761499d613ea2565b5b60006149ac85828601613ecd565b925050602083013567ffffffffffffffff8111156149cd576149cc613ea7565b5b6149d9858286016145c6565b9150509250929050565b60c0820160008201516149f96000850182614081565b506020820151614a0c6020850182614081565b506040820151614a1f6040850182614354565b506060820151614a326060850182614345565b506080820151614a456080850182614081565b5060a0820151614a5860a0850182614081565b50505050565b600060c082019050614a7360008301846149e3565b92915050565b7f4e487b7100000000000000000000000000000000000000000000000000000000600052602260045260246000fd5b60006002820490506001821680614ac057607f821691505b602082108103614ad357614ad2614a79565b5b50919050565b7f46656520746f6f20686967680000000000000000000000000000000000000000600082015250565b6000614b0f600c83614140565b9150614b1a82614ad9565b602082019050919050565b60006020820190508181036000830152614b3e81614b02565b9050919050565b7f4576656e7420646f6573206e6f74206578697374000000000000000000000000600082015250565b6000614b7b601483614140565b9150614b8682614b45565b602082019050919050565b60006020820190508181036000830152614baa81614b6e565b9050919050565b6000606082019050614bc660008301866141e7565b614bd36020830185614251565b614be060408301846141e7565b949350505050565b7f4e6f7420617574686f72697a6564207665726966696572000000000000000000600082015250565b6000614c1e601783614140565b9150614c2982614be8565b602082019050919050565b60006020820190508181036000830152614c4d81614c11565b9050919050565b7f5469636b657420646f6573206e6f742065786973740000000000000000000000600082015250565b6000614c8a601583614140565b9150614c9582614c54565b602082019050919050565b60006020820190508181036000830152614cb981614c7d565b9050919050565b7f5469636b657420616c7265616479207573656400000000000000000000000000600082015250565b6000614cf6601383614140565b9150614d0182614cc0565b602082019050919050565b60006020820190508181036000830152614d2581614ce9565b9050919050565b7f4e487b7100000000000000000000000000000000000000000000000000000000600052601160045260246000fd5b6000614d6682613eac565b9150614d7183613eac565b9250828203905081811115614d8957614d88614d2c565b5b92915050565b6000614d9a82613eac565b9150614da583613eac565b9250828201905080821115614dbd57614dbc614d2c565b5b92915050565b7f4576656e74206163636573732077696e646f7720636c6f736564000000000000600082015250565b6000614df9601a83614140565b9150614e0482614dc3565b602082019050919050565b60006020820190508181036000830152614e2881614dec565b9050919050565b7f4576656e74206e616d652063616e6e6f7420626520656d707479000000000000600082015250565b6000614e65601a83614140565b9150614e7082614e2f565b602082019050919050565b60006020820190508181036000830152614e9481614e58565b9050919050565b7f4d617820737570706c79206d7573742062652067726561746572207468616e2060008201527f3000000000000000000000000000000000000000000000000000000000000000602082015250565b6000614ef7602183614140565b9150614f0282614e9b565b604082019050919050565b60006020820190508181036000830152614f2681614eea565b9050919050565b7f4576656e742064617465206d75737420626520696e2074686520667574757265600082015250565b6000614f63602083614140565b9150614f6e82614f2d565b602082019050919050565b60006020820190508181036000830152614f9281614f56565b9050919050565b6000614fa482613eac565b91507fffffffffffffffffffffffffffffffffffffffffffffffffffffffffffffffff8203614fd657614fd5614d2c565b5b600182019050919050565b60008190508160005260206000209050919050565b60006020601f8301049050919050565b600082821b905092915050565b6000600883026150437fffffffffffffffffffffffffffffffffffffffffffffffffffffffffffffffff82615006565b61504d8683615006565b95508019841693508086168417925050509392505050565b6000819050919050565b600061508a61508561508084613eac565b615065565b613eac565b9050919050565b6000819050919050565b6150a48361506f565b6150b86150b082615091565b848454615013565b825550505050565b600090565b6150cd6150c0565b6150d881848461509b565b505050565b5b818110156150fc576150f16000826150c5565b6001810190506150de565b5050565b601f8211156151415761511281614fe1565b61511b84614ff6565b8101602085101561512a578190505b61513e61513685614ff6565b8301826150dd565b50505b505050565b600082821c905092915050565b600061516460001984600802615146565b1980831691505092915050565b600061517d8383615153565b9150826002028217905092915050565b61519682614135565b67ffffffffffffffff8111156151af576151ae6144c9565b5b6151b98254614aa8565b6151c4828285615100565b600060209050601f8311600181146151f757600084156151e5578287015190505b6151ef8582615171565b865550615257565b601f19841661520586614fe1565b60005b8281101561522d57848901518255600182019150602085019450602081019050615208565b8683101561524a5784890151615246601f891682615153565b8355505b6001600288020188555050505b505050505050565b60006060820190508181036000830152615279818661418c565b90506152886020830185614251565b6152956040830184614251565b949350505050565b600081905092915050565b50565b60006152b860008361529d565b91506152c3826152a8565b600082019050919050565b60006152d9826152ab565b9150819050919050565b7f5769746864726177616c206661696c6564000000000000000000000000000000600082015250565b6000615319601183614140565b9150615324826152e3565b602082019050919050565b600060208201905081810360008301526153488161530c565b9050919050565b7f4e6f74206576656e74206f7267616e697a657200000000000000000000000000600082015250565b6000615385601383614140565b91506153908261534f565b602082019050919050565b600060208201905081810360008301526153b481615378565b9050919050565b600060408201905081810360008301526153d5818561418c565b90506153e46020830184614251565b9392505050565b7f496e76616c696420766572696669657220616464726573730000000000000000600082015250565b6000615421601883614140565b915061542c826153eb565b602082019050919050565b6000602082019050818103600083015261545081615414565b9050919050565b7f4576656e74206973206e6f742061637469766500000000000000000000000000600082015250565b600061548d601383614140565b915061549882615457565b602082019050919050565b600060208201905081810360008301526154bc81615480565b9050919050565b7f4576656e7420736f6c64206f7574000000000000000000000000000000000000600082015250565b60006154f9600e83614140565b9150615504826154c3565b602082019050919050565b60006020820190508181036000830152615528816154ec565b9050919050565b7f496e73756666696369656e74207061796d656e74000000000000000000000000600082015250565b6000615565601483614140565b91506155708261552f565b602082019050919050565b6000602082019050818103600083015261559481615558565b9050919050565b7f4576656e742068617320616c7265616479207061737365640000000000000000600082015250565b60006155d1601883614140565b91506155dc8261559b565b602082019050919050565b60006020820190508181036000830152615600816155c4565b9050919050565b600061561282613eac565b915061561d83613eac565b925082820261562b81613eac565b9150828204841483151761564257615641614d2c565b5b5092915050565b7f4e487b7100000000000000000000000000000000000000000000000000000000600052601260045260246000fd5b600061568382613eac565b915061568e83613eac565b92508261569e5761569d615649565b5b828204905092915050565b7f5061796d656e7420746f206f7267616e697a6572206661696c65640000000000600082015250565b60006156df601b83614140565b91506156ea826156a9565b602082019050919050565b6000602082019050818103600083015261570e816156d2565b9050919050565b7f526566756e64206661696c656400000000000000000000000000000000000000600082015250565b600061574b600d83614140565b915061575682615715565b602082019050919050565b6000602082019050818103600083015261577a8161573e565b9050919050565b600060408201905061579660008301856141e7565b6157a36020830184614251565b9392505050565b7f4e487b7100000000000000000000000000000000000000000000000000000000600052603260045260246000fd5b7f4e487b7100000000000000000000000000000000000000000000000000000000600052603160045260246000fd5b600081519050919050565b600082825260208201905092915050565b600061582f82615808565b6158398185615813565b9350615849818560208601614151565b6158528161417b565b840191505092915050565b600060808201905061587260008301876141e7565b61587f60208301866141e7565b61588c6040830185614251565b818103606083015261589e8184615824565b905095945050505050565b6000815190506158b881613f71565b92915050565b6000602082840312156158d4576158d3613ea2565b5b60006158e2848285016158a9565b91505092915050565b600081905092915050565b600061590182614135565b61590b81856158eb565b935061591b818560208601614151565b80840191505092915050565b600061593382856158f6565b915061593f82846158f6565b9150819050939250505056fea264697066735822122040dd22a1fad51770c98ffdb557ffb541fda52bcefe6b3eaaa3a2a9cb69870a7764736f6c634300081c0033",
  "linkReferences": {},
  "deployedLinkReferences": {}
}